{"contracts/Contract.sol":{"Waffle":{"abi":[{"inputs":[{"internalType":"address","name":"_owner","type":"address"},{"internalType":"address","name":"_nftContract","type":"address"},{"internalType":"address","name":"_ChainlinkVRFCoordinator","type":"address"},{"internalType":"address","name":"_ChainlinkLINKToken","type":"address"},{"internalType":"bytes32","name":"_ChainlinkKeyHash","type":"bytes32"},{"internalType":"uint256","name":"_ChainlinkFee","type":"uint256"},{"internalType":"uint256","name":"_nftID","type":"uint256"},{"internalType":"uint256","name":"_slotPrice","type":"uint256"},{"internalType":"uint256","name":"_numSlotsAvailable","type":"uint256"}],"stateMutability":"nonpayable","type":"constructor"},{"anonymous":false,"inputs":[{"indexed":true,"internalType":"address","name":"winner","type":"address"}],"name":"RaffleWon","type":"event"},{"anonymous":false,"inputs":[{"indexed":true,"internalType":"address","name":"claimee","type":"address"},{"indexed":false,"internalType":"uint256","name":"numClaimed","type":"uint256"}],"name":"SlotsClaimed","type":"event"},{"anonymous":false,"inputs":[{"indexed":true,"internalType":"address","name":"refunder","type":"address"},{"indexed":false,"internalType":"uint256","name":"numRefunded","type":"uint256"}],"name":"SlotsRefunded","type":"event"},{"inputs":[{"internalType":"address","name":"","type":"address"}],"name":"addressToSlotsOwned","outputs":[{"internalType":"uint256","name":"","type":"uint256"}],"stateMutability":"view","type":"function"},{"inputs":[],"name":"collectRandomWinner","outputs":[{"internalType":"bytes32","name":"requestId","type":"bytes32"}],"stateMutability":"nonpayable","type":"function"},{"inputs":[],"name":"deleteRaffle","outputs":[],"stateMutability":"nonpayable","type":"function"},{"inputs":[],"name":"disburseWinner","outputs":[],"stateMutability":"nonpayable","type":"function"},{"inputs":[],"name":"nftContract","outputs":[{"internalType":"address","name":"","type":"address"}],"stateMutability":"view","type":"function"},{"inputs":[],"name":"nftID","outputs":[{"internalType":"uint256","name":"","type":"uint256"}],"stateMutability":"view","type":"function"},{"inputs":[],"name":"nftOwned","outputs":[{"internalType":"bool","name":"","type":"bool"}],"stateMutability":"view","type":"function"},{"inputs":[],"name":"numSlotsAvailable","outputs":[{"internalType":"uint256","name":"","type":"uint256"}],"stateMutability":"view","type":"function"},{"inputs":[],"name":"numSlotsFilled","outputs":[{"internalType":"uint256","name":"","type":"uint256"}],"stateMutability":"view","type":"function"},{"inputs":[{"internalType":"address","name":"operator","type":"address"},{"internalType":"address","name":"from","type":"address"},{"internalType":"uint256","name":"tokenId","type":"uint256"},{"internalType":"bytes","name":"data","type":"bytes"}],"name":"onERC721Received","outputs":[{"internalType":"bytes4","name":"","type":"bytes4"}],"stateMutability":"nonpayable","type":"function"},{"inputs":[],"name":"owner","outputs":[{"internalType":"address","name":"","type":"address"}],"stateMutability":"view","type":"function"},{"inputs":[{"internalType":"uint256","name":"_numSlots","type":"uint256"}],"name":"purchaseSlot","outputs":[],"stateMutability":"payable","type":"function"},{"inputs":[],"name":"randomResult","outputs":[{"internalType":"uint256","name":"","type":"uint256"}],"stateMutability":"view","type":"function"},{"inputs":[],"name":"randomResultRequested","outputs":[{"internalType":"bool","name":"","type":"bool"}],"stateMutability":"view","type":"function"},{"inputs":[{"internalType":"bytes32","name":"requestId","type":"bytes32"},{"internalType":"uint256","name":"randomness","type":"uint256"}],"name":"rawFulfillRandomness","outputs":[],"stateMutability":"nonpayable","type":"function"},{"inputs":[{"internalType":"uint256","name":"_numSlots","type":"uint256"}],"name":"refundSlot","outputs":[],"stateMutability":"nonpayable","type":"function"},{"inputs":[{"internalType":"uint256","name":"","type":"uint256"}],"name":"slotOwners","outputs":[{"internalType":"address","name":"","type":"address"}],"stateMutability":"view","type":"function"},{"inputs":[],"name":"slotPrice","outputs":[{"internalType":"uint256","name":"","type":"uint256"}],"stateMutability":"view","type":"function"}],"evm":{"bytecode":{"linkReferences":{},"object":"6101a0604052600060018190556002805460ff199081169091556003919091556006805490911690553480156200003557600080fd5b5060405162001a7038038062001a708339810160408190526200005891620000b9565b6001600160a01b0396871660a0529486166080529685166101005260c09290925260e052929091166101605261018091909152610120919091526101405262000147565b80516001600160a01b0381168114620000b457600080fd5b919050565b60008060008060008060008060006101208a8c031215620000d957600080fd5b620000e48a6200009c565b9850620000f460208b016200009c565b97506200010460408b016200009c565b96506200011460608b016200009c565b955060808a0151945060a08a0151935060c08a0151925060e08a015191506101008a015190509295985092959850929598565b60805160a05160c05160e051610100516101205161014051610160516101805161184f6200022160003960008181610324015281816107e001528181610aac0152610cf90152600081816103780152818161074201528181610ad40152610d1f0152600081816102840152818161044501526105d70152600081816101350152818161053e01528181610dd101526110ac0152600081816102b801528181610a0c01528181610b7e01526111fe01526000611314015260006112f30152600081816113480152611418015260006113e9015261184f6000f3fe6080604052600436106101095760003560e01c806347984f2c1161009557806394985ddd1161006457806394985ddd146102f2578063c399475214610312578063ce16097e14610346578063d56d229d14610366578063fd1fbdd11461039a57600080fd5b806347984f2c146102425780635d1cf7ea1461025c5780637489ce48146102725780638da5cb5b146102a657600080fd5b80631a8cef9a116100dc5780631a8cef9a146101cd5780631b355bd8146101e2578063201c5343146101f75780632f8b74141461021757806342619f661461022c57600080fd5b806304c60eae1461010e57806304e0465614610123578063150b7a021461016a57806315cc7b2a146101a3575b600080fd5b61012161011c366004611560565b6103c7565b005b34801561012f57600080fd5b506101577f000000000000000000000000000000000000000000000000000000000000000081565b6040519081526020015b60405180910390f35b34801561017657600080fd5b5061018a610185366004611595565b61073e565b6040516001600160e01b03199091168152602001610161565b3480156101af57600080fd5b506006546101bd9060ff1681565b6040519015158152602001610161565b3480156101d957600080fd5b50610121610883565b3480156101ee57600080fd5b50610121610b73565b34801561020357600080fd5b50610121610212366004611560565b610e5c565b34801561022357600080fd5b50610157611179565b34801561023857600080fd5b5061015760015481565b34801561024e57600080fd5b506002546101bd9060ff1681565b34801561026857600080fd5b5061015760035481565b34801561027e57600080fd5b506101577f000000000000000000000000000000000000000000000000000000000000000081565b3480156102b257600080fd5b506102da7f000000000000000000000000000000000000000000000000000000000000000081565b6040516001600160a01b039091168152602001610161565b3480156102fe57600080fd5b5061012161030d366004611630565b61133d565b34801561031e57600080fd5b506101577f000000000000000000000000000000000000000000000000000000000000000081565b34801561035257600080fd5b506102da610361366004611560565b6113bb565b34801561037257600080fd5b506102da7f000000000000000000000000000000000000000000000000000000000000000081565b3480156103a657600080fd5b506101576103b5366004611652565b60056020526000908152604090205481565b6000811161041c5760405162461bcd60e51b815260206004820181905260248201527f576166666c653a2043616e6e6f74207075726368617365203020736c6f74732e60448201526064015b60405180910390fd5b60065460ff1615156001146104435760405162461bcd60e51b815260040161041390611674565b7f0000000000000000000000000000000000000000000000000000000000000000600354106104c05760405162461bcd60e51b8152602060048201526024808201527f576166666c653a20416c6c20726166666c6520736c6f7473206172652066696c6044820152633632b21760e11b6064820152608401610413565b60025460ff16156105395760405162461bcd60e51b815260206004820152603a60248201527f576166666c653a2043616e6e6f7420707572636861736520736c6f742061667460448201527f65722077696e6e657220686173206265656e2063686f73656e2e0000000000006064820152608401610413565b6105637f0000000000000000000000000000000000000000000000000000000000000000826116d7565b34146105ce5760405162461bcd60e51b815260206004820152603460248201527f576166666c653a20496e73756666696369656e74204554482070726f7669646560448201527332103a3790383ab931b430b9b29039b637ba399760611b6064820152608401610413565b6003546105fb907f00000000000000000000000000000000000000000000000000000000000000006116ee565b8111156106615760405162461bcd60e51b815260206004820152602e60248201527f576166666c653a2052657175657374696e6720746f207075726368617365207460448201526d37b79036b0b73c9039b637ba399760911b6064820152608401610413565b60005b818110156106c057600480546001810182556000919091527f8a35acfbc15ff81a39ae7d344fd709f28e8600b4aa8c65c6b64bfe7fe36bd19b0180546001600160a01b03191633179055806106b881611701565b915050610664565b50806003546106cf919061171a565b600355336000908152600560205260409020546106ed90829061171a565b33600081815260056020526040908190209290925590517f86e01953521e8ca90cf9568ce180d715096931ef1c18c1343b19c53e5c6e6361906107339084815260200190565b60405180910390a250565b60007f00000000000000000000000000000000000000000000000000000000000000006001600160a01b0316856001600160a01b0316146107de5760405162461bcd60e51b815260206004820152603460248201527f576166666c653a20526166666c65206e6f7420696e697469617465642077697460448201527334103a3434b99027232a1031b7b73a3930b1ba1760611b6064820152608401610413565b7f000000000000000000000000000000000000000000000000000000000000000084146108645760405162461bcd60e51b815260206004820152602e60248201527f576166666c653a20526166666c65206e6f7420696e697469617465642077697460448201526d34103a3434b99027232a1024a21760911b6064820152608401610413565b506006805460ff19166001179055630a85bd0160e11b95945050505050565b60065460ff1615156001146109005760405162461bcd60e51b815260206004820152603a60248201527f576166666c653a2043616e6e6f74206469737572627365204e465420746f207760448201527f696e6e657220776974686f757420686f6c64696e67204e46542e0000000000006064820152608401610413565b60025460ff16151560011461097d5760405162461bcd60e51b815260206004820152603f60248201527f576166666c653a2043616e6e6f7420646973627572736520746f2077696e6e6560448201527f7220776974686f757420686176696e6720636f6c6c6563746564206f6e652e006064820152608401610413565b6001546000036109ff5760405162461bcd60e51b815260206004820152604160248201527f576166666c653a20506c65617365207761697420666f7220436861696e6c696e60448201527f6b2056524620746f20757064617465207468652077696e6e65722066697273746064820152601760f91b608482015260a401610413565b6040516001600160a01b037f000000000000000000000000000000000000000000000000000000000000000016904780156108fc02916000818181858888f19350505050158015610a54573d6000803e3d6000fd5b5060006004600354600154610a69919061172d565b81548110610a7957610a7961174f565b600091825260209091200154604051632142170760e11b81523060048201526001600160a01b03918216602482018190527f0000000000000000000000000000000000000000000000000000000000000000604483015292507f0000000000000000000000000000000000000000000000000000000000000000909116906342842e0e90606401600060405180830381600087803b158015610b1a57600080fd5b505af1158015610b2e573d6000803e3d6000fd5b50506006805460ff1916905550506040516001600160a01b038216907fa2564fbe9f8e6077adcf46dfe7c571eae3b5a67375d138e992f66e4db4f9752690600090a250565b336001600160a01b037f00000000000000000000000000000000000000000000000000000000000000001614610bf95760405162461bcd60e51b815260206004820152602560248201527f576166666c653a204f6e6c79206f776e65722063616e2064656c657465207261604482015264333336329760d91b6064820152608401610413565b60065460ff161515600114610c6d5760405162461bcd60e51b815260206004820152603460248201527f576166666c653a2043616e6e6f742063616e63656c20726166666c65207769746044820152733437baba103930b3333632b0b136329027232a1760611b6064820152608401610413565b60025460ff1615610cde5760405162461bcd60e51b815260206004820152603560248201527f576166666c653a2043616e6e6f742064656c65746520726166666c652061667460448201527432b91031b7b63632b1ba34b733903bb4b73732b91760591b6064820152608401610413565b604051632142170760e11b81523060048201523360248201527f000000000000000000000000000000000000000000000000000000000000000060448201527f00000000000000000000000000000000000000000000000000000000000000006001600160a01b0316906342842e0e90606401600060405180830381600087803b158015610d6b57600080fd5b505af1158015610d7f573d6000803e3d6000fd5b50506006805460ff191690555050600354600090610d9f906001906116ee565b90505b60048181548110610db557610db561174f565b60009182526020822001546040516001600160a01b03909116917f000000000000000000000000000000000000000000000000000000000000000080156108fc02929091818181858888f19350505050158015610e16573d6000803e3d6000fd5b506004805480610e2857610e28611765565b600082815260209020810160001990810180546001600160a01b031916905501905580610e548161177b565b915050610da2565b60065460ff161515600114610e835760405162461bcd60e51b815260040161041390611674565b60025460ff1615610efc5760405162461bcd60e51b815260206004820152603860248201527f576166666c653a2043616e6e6f7420726566756e6420736c6f7420616674657260448201527f2077696e6e657220686173206265656e2063686f73656e2e00000000000000006064820152608401610413565b33600090815260056020526040902054811115610f815760405162461bcd60e51b815260206004820152603760248201527f576166666c653a204164647265737320646f6573206e6f74206f776e206e756d60448201527f626572206f662072657175657374656420736c6f74732e0000000000000000006064820152608401610413565b6000815b60045482108015610f965750600081115b156110a357336001600160a01b031660048381548110610fb857610fb861174f565b6000918252602090912001546001600160a01b031614610fe45781610fdc81611701565b925050610f85565b60048054610ff4906001906116ee565b815481106110045761100461174f565b600091825260209091200154600480546001600160a01b0390921691849081106110305761103061174f565b9060005260206000200160006101000a8154816001600160a01b0302191690836001600160a01b03160217905550600480548061106f5761106f611765565b600082815260209020810160001990810180546001600160a01b03191690550190558061109b8161177b565b915050610f85565b336108fc6110d17f0000000000000000000000000000000000000000000000000000000000000000866116d7565b6040518115909202916000818181858888f193505050501580156110f9573d6000803e3d6000fd5b508260035461110891906116ee565b600355336000908152600560205260409020546111269084906116ee565b33600081815260056020526040908190209290925590517fe8e3157b474707a4ad53aa38ca233ac428bb08f705eb304f0859d2a884c880029061116c9086815260200190565b60405180910390a2505050565b600080600354116111cc5760405162461bcd60e51b815260206004820152601b60248201527f576166666c653a204e6f20736c6f7473206172652066696c6c656400000000006044820152606401610413565b60065460ff1615156001146111f35760405162461bcd60e51b815260040161041390611674565b336001600160a01b037f000000000000000000000000000000000000000000000000000000000000000016146112825760405162461bcd60e51b815260206004820152602e60248201527f576166666c653a204f6e6c79206f776e65722063616e2063616c6c2077696e6e60448201526d32b91031b7b63632b1ba34b7b71760911b6064820152608401610413565b60025460ff16156112e15760405162461bcd60e51b8152602060048201526024808201527f576166666c653a2043616e6e6f7420636f6c6c6563742077696e6e657220747760448201526334b1b29760e11b6064820152608401610413565b6002805460ff191660011790556113387f00000000000000000000000000000000000000000000000000000000000000007f00000000000000000000000000000000000000000000000000000000000000006113e5565b905090565b336001600160a01b037f000000000000000000000000000000000000000000000000000000000000000016146113b55760405162461bcd60e51b815260206004820152601f60248201527f4f6e6c7920565246436f6f7264696e61746f722063616e2066756c66696c6c006044820152606401610413565b60015550565b600481815481106113cb57600080fd5b6000918252602090912001546001600160a01b0316905081565b60007f00000000000000000000000000000000000000000000000000000000000000006001600160a01b0316634000aea07f000000000000000000000000000000000000000000000000000000000000000084866000604051602001611455929190918252602082015260400190565b6040516020818303038152906040526040518463ffffffff1660e01b815260040161148293929190611792565b6020604051808303816000875af11580156114a1573d6000803e3d6000fd5b505050506040513d601f19601f820116820180604052508101906114c591906117f7565b5060008381526020818152604080832054815180840188905280830185905230606082015260808082018390528351808303909101815260a09091019092528151918301919091208684529290915261151f90600161171a565b600085815260208181526040918290209290925580518083018790528082019390935280518084038201815260609093019052815191012090505b92915050565b60006020828403121561157257600080fd5b5035919050565b80356001600160a01b038116811461159057600080fd5b919050565b6000806000806000608086880312156115ad57600080fd5b6115b686611579565b94506115c460208701611579565b935060408601359250606086013567ffffffffffffffff808211156115e857600080fd5b818801915088601f8301126115fc57600080fd5b81358181111561160b57600080fd5b89602082850101111561161d57600080fd5b9699959850939650602001949392505050565b6000806040838503121561164357600080fd5b50508035926020909101359150565b60006020828403121561166457600080fd5b61166d82611579565b9392505050565b6020808252602d908201527f576166666c653a20436f6e747261637420646f6573206e6f74206f776e20726160408201526c33333632b0b136329027232a1760991b606082015260800190565b634e487b7160e01b600052601160045260246000fd5b808202811582820484141761155a5761155a6116c1565b8181038181111561155a5761155a6116c1565b600060018201611713576117136116c1565b5060010190565b8082018082111561155a5761155a6116c1565b60008261174a57634e487b7160e01b600052601260045260246000fd5b500690565b634e487b7160e01b600052603260045260246000fd5b634e487b7160e01b600052603160045260246000fd5b60008161178a5761178a6116c1565b506000190190565b60018060a01b038416815260006020848184015260606040840152835180606085015260005b818110156117d4578581018301518582016080015282016117b8565b506000608082860101526080601f19601f83011685010192505050949350505050565b60006020828403121561180957600080fd5b8151801515811461166d57600080fdfea264697066735822122003dd96c6e1351c437ad50d526e3cded2bf7e7f7569267e843ddd8cd93d80fe9d64736f6c63430008110033","opcodes":"PUSH2 0x1A0 PUSH1 0x40 MSTORE PUSH1 0x0 PUSH1 0x1 DUP2 SWAP1 SSTORE PUSH1 0x2 DUP1 SLOAD PUSH1 0xFF NOT SWAP1 DUP2 AND SWAP1 SWAP2 SSTORE PUSH1 0x3 SWAP2 SWAP1 SWAP2 SSTORE PUSH1 0x6 DUP1 SLOAD SWAP1 SWAP2 AND SWAP1 SSTORE CALLVALUE DUP1 ISZERO PUSH3 0x35 JUMPI PUSH1 0x0 DUP1 REVERT JUMPDEST POP PUSH1 0x40 MLOAD PUSH3 0x1A70 CODESIZE SUB DUP1 PUSH3 0x1A70 DUP4 CODECOPY DUP2 ADD PUSH1 0x40 DUP2 SWAP1 MSTORE PUSH3 0x58 SWAP2 PUSH3 0xB9 JUMP JUMPDEST PUSH1 0x1 PUSH1 0x1 PUSH1 0xA0 SHL SUB SWAP7 DUP8 AND PUSH1 0xA0 MSTORE SWAP5 DUP7 AND PUSH1 0x80 MSTORE SWAP7 DUP6 AND PUSH2 0x100 MSTORE PUSH1 0xC0 SWAP3 SWAP1 SWAP3 MSTORE PUSH1 0xE0 MSTORE SWAP3 SWAP1 SWAP2 AND PUSH2 0x160 MSTORE PUSH2 0x180 SWAP2 SWAP1 SWAP2 MSTORE PUSH2 0x120 SWAP2 SWAP1 SWAP2 MSTORE PUSH2 0x140 MSTORE PUSH3 0x147 JUMP JUMPDEST DUP1 MLOAD PUSH1 0x1 PUSH1 0x1 PUSH1 0xA0 SHL SUB DUP2 AND DUP2 EQ PUSH3 0xB4 JUMPI PUSH1 0x0 DUP1 REVERT JUMPDEST SWAP2 SWAP1 POP JUMP JUMPDEST PUSH1 0x0 DUP1 PUSH1 0x0 DUP1 PUSH1 0x0 DUP1 PUSH1 0x0 DUP1 PUSH1 0x0 PUSH2 0x120 DUP11 DUP13 SUB SLT ISZERO PUSH3 0xD9 JUMPI PUSH1 0x0 DUP1 REVERT JUMPDEST PUSH3 0xE4 DUP11 PUSH3 0x9C JUMP JUMPDEST SWAP9 POP PUSH3 0xF4 PUSH1 0x20 DUP12 ADD PUSH3 0x9C JUMP JUMPDEST SWAP8 POP PUSH3 0x104 PUSH1 0x40 DUP12 ADD PUSH3 0x9C JUMP JUMPDEST SWAP7 POP PUSH3 0x114 PUSH1 0x60 DUP12 ADD PUSH3 0x9C JUMP JUMPDEST SWAP6 POP PUSH1 0x80 DUP11 ADD MLOAD SWAP5 POP PUSH1 0xA0 DUP11 ADD MLOAD SWAP4 POP PUSH1 0xC0 DUP11 ADD MLOAD SWAP3 POP PUSH1 0xE0 DUP11 ADD MLOAD SWAP2 POP PUSH2 0x100 DUP11 ADD MLOAD SWAP1 POP SWAP3 SWAP6 SWAP9 POP SWAP3 SWAP6 SWAP9 POP SWAP3 SWAP6 SWAP9 JUMP JUMPDEST PUSH1 0x80 MLOAD PUSH1 0xA0 MLOAD PUSH1 0xC0 MLOAD PUSH1 0xE0 MLOAD PUSH2 0x100 MLOAD PUSH2 0x120 MLOAD PUSH2 0x140 MLOAD PUSH2 0x160 MLOAD PUSH2 0x180 MLOAD PUSH2 0x184F PUSH3 0x221 PUSH1 0x0 CODECOPY PUSH1 0x0 DUP2 DUP2 PUSH2 0x324 ADD MSTORE DUP2 DUP2 PUSH2 0x7E0 ADD MSTORE DUP2 DUP2 PUSH2 0xAAC ADD MSTORE PUSH2 0xCF9 ADD MSTORE PUSH1 0x0 DUP2 DUP2 PUSH2 0x378 ADD MSTORE DUP2 DUP2 PUSH2 0x742 ADD MSTORE DUP2 DUP2 PUSH2 0xAD4 ADD MSTORE PUSH2 0xD1F ADD MSTORE PUSH1 0x0 DUP2 DUP2 PUSH2 0x284 ADD MSTORE DUP2 DUP2 PUSH2 0x445 ADD MSTORE PUSH2 0x5D7 ADD MSTORE PUSH1 0x0 DUP2 DUP2 PUSH2 0x135 ADD MSTORE DUP2 DUP2 PUSH2 0x53E ADD MSTORE DUP2 DUP2 PUSH2 0xDD1 ADD MSTORE PUSH2 0x10AC ADD MSTORE PUSH1 0x0 DUP2 DUP2 PUSH2 0x2B8 ADD MSTORE DUP2 DUP2 PUSH2 0xA0C ADD MSTORE DUP2 DUP2 PUSH2 0xB7E ADD MSTORE PUSH2 0x11FE ADD MSTORE PUSH1 0x0 PUSH2 0x1314 ADD MSTORE PUSH1 0x0 PUSH2 0x12F3 ADD MSTORE PUSH1 0x0 DUP2 DUP2 PUSH2 0x1348 ADD MSTORE PUSH2 0x1418 ADD MSTORE PUSH1 0x0 PUSH2 0x13E9 ADD MSTORE PUSH2 0x184F PUSH1 0x0 RETURN INVALID PUSH1 0x80 PUSH1 0x40 MSTORE PUSH1 0x4 CALLDATASIZE LT PUSH2 0x109 JUMPI PUSH1 0x0 CALLDATALOAD PUSH1 0xE0 SHR DUP1 PUSH4 0x47984F2C GT PUSH2 0x95 JUMPI DUP1 PUSH4 0x94985DDD GT PUSH2 0x64 JUMPI DUP1 PUSH4 0x94985DDD EQ PUSH2 0x2F2 JUMPI DUP1 PUSH4 0xC3994752 EQ PUSH2 0x312 JUMPI DUP1 PUSH4 0xCE16097E EQ PUSH2 0x346 JUMPI DUP1 PUSH4 0xD56D229D EQ PUSH2 0x366 JUMPI DUP1 PUSH4 0xFD1FBDD1 EQ PUSH2 0x39A JUMPI PUSH1 0x0 DUP1 REVERT JUMPDEST DUP1 PUSH4 0x47984F2C EQ PUSH2 0x242 JUMPI DUP1 PUSH4 0x5D1CF7EA EQ PUSH2 0x25C JUMPI DUP1 PUSH4 0x7489CE48 EQ PUSH2 0x272 JUMPI DUP1 PUSH4 0x8DA5CB5B EQ PUSH2 0x2A6 JUMPI PUSH1 0x0 DUP1 REVERT JUMPDEST DUP1 PUSH4 0x1A8CEF9A GT PUSH2 0xDC JUMPI DUP1 PUSH4 0x1A8CEF9A EQ PUSH2 0x1CD JUMPI DUP1 PUSH4 0x1B355BD8 EQ PUSH2 0x1E2 JUMPI DUP1 PUSH4 0x201C5343 EQ PUSH2 0x1F7 JUMPI DUP1 PUSH4 0x2F8B7414 EQ PUSH2 0x217 JUMPI DUP1 PUSH4 0x42619F66 EQ PUSH2 0x22C JUMPI PUSH1 0x0 DUP1 REVERT JUMPDEST DUP1 PUSH4 0x4C60EAE EQ PUSH2 0x10E JUMPI DUP1 PUSH4 0x4E04656 EQ PUSH2 0x123 JUMPI DUP1 PUSH4 0x150B7A02 EQ PUSH2 0x16A JUMPI DUP1 PUSH4 0x15CC7B2A EQ PUSH2 0x1A3 JUMPI JUMPDEST PUSH1 0x0 DUP1 REVERT JUMPDEST PUSH2 0x121 PUSH2 0x11C CALLDATASIZE PUSH1 0x4 PUSH2 0x1560 JUMP JUMPDEST PUSH2 0x3C7 JUMP JUMPDEST STOP JUMPDEST CALLVALUE DUP1 ISZERO PUSH2 0x12F JUMPI PUSH1 0x0 DUP1 REVERT JUMPDEST POP PUSH2 0x157 PUSH32 0x0 DUP2 JUMP JUMPDEST PUSH1 0x40 MLOAD SWAP1 DUP2 MSTORE PUSH1 0x20 ADD JUMPDEST PUSH1 0x40 MLOAD DUP1 SWAP2 SUB SWAP1 RETURN JUMPDEST CALLVALUE DUP1 ISZERO PUSH2 0x176 JUMPI PUSH1 0x0 DUP1 REVERT JUMPDEST POP PUSH2 0x18A PUSH2 0x185 CALLDATASIZE PUSH1 0x4 PUSH2 0x1595 JUMP JUMPDEST PUSH2 0x73E JUMP JUMPDEST PUSH1 0x40 MLOAD PUSH1 0x1 PUSH1 0x1 PUSH1 0xE0 SHL SUB NOT SWAP1 SWAP2 AND DUP2 MSTORE PUSH1 0x20 ADD PUSH2 0x161 JUMP JUMPDEST CALLVALUE DUP1 ISZERO PUSH2 0x1AF JUMPI PUSH1 0x0 DUP1 REVERT JUMPDEST POP PUSH1 0x6 SLOAD PUSH2 0x1BD SWAP1 PUSH1 0xFF AND DUP2 JUMP JUMPDEST PUSH1 0x40 MLOAD SWAP1 ISZERO ISZERO DUP2 MSTORE PUSH1 0x20 ADD PUSH2 0x161 JUMP JUMPDEST CALLVALUE DUP1 ISZERO PUSH2 0x1D9 JUMPI PUSH1 0x0 DUP1 REVERT JUMPDEST POP PUSH2 0x121 PUSH2 0x883 JUMP JUMPDEST CALLVALUE DUP1 ISZERO PUSH2 0x1EE JUMPI PUSH1 0x0 DUP1 REVERT JUMPDEST POP PUSH2 0x121 PUSH2 0xB73 JUMP JUMPDEST CALLVALUE DUP1 ISZERO PUSH2 0x203 JUMPI PUSH1 0x0 DUP1 REVERT JUMPDEST POP PUSH2 0x121 PUSH2 0x212 CALLDATASIZE PUSH1 0x4 PUSH2 0x1560 JUMP JUMPDEST PUSH2 0xE5C JUMP JUMPDEST CALLVALUE DUP1 ISZERO PUSH2 0x223 JUMPI PUSH1 0x0 DUP1 REVERT JUMPDEST POP PUSH2 0x157 PUSH2 0x1179 JUMP JUMPDEST CALLVALUE DUP1 ISZERO PUSH2 0x238 JUMPI PUSH1 0x0 DUP1 REVERT JUMPDEST POP PUSH2 0x157 PUSH1 0x1 SLOAD DUP2 JUMP JUMPDEST CALLVALUE DUP1 ISZERO PUSH2 0x24E JUMPI PUSH1 0x0 DUP1 REVERT JUMPDEST POP PUSH1 0x2 SLOAD PUSH2 0x1BD SWAP1 PUSH1 0xFF AND DUP2 JUMP JUMPDEST CALLVALUE DUP1 ISZERO PUSH2 0x268 JUMPI PUSH1 0x0 DUP1 REVERT JUMPDEST POP PUSH2 0x157 PUSH1 0x3 SLOAD DUP2 JUMP JUMPDEST CALLVALUE DUP1 ISZERO PUSH2 0x27E JUMPI PUSH1 0x0 DUP1 REVERT JUMPDEST POP PUSH2 0x157 PUSH32 0x0 DUP2 JUMP JUMPDEST CALLVALUE DUP1 ISZERO PUSH2 0x2B2 JUMPI PUSH1 0x0 DUP1 REVERT JUMPDEST POP PUSH2 0x2DA PUSH32 0x0 DUP2 JUMP JUMPDEST PUSH1 0x40 MLOAD PUSH1 0x1 PUSH1 0x1 PUSH1 0xA0 SHL SUB SWAP1 SWAP2 AND DUP2 MSTORE PUSH1 0x20 ADD PUSH2 0x161 JUMP JUMPDEST CALLVALUE DUP1 ISZERO PUSH2 0x2FE JUMPI PUSH1 0x0 DUP1 REVERT JUMPDEST POP PUSH2 0x121 PUSH2 0x30D CALLDATASIZE PUSH1 0x4 PUSH2 0x1630 JUMP JUMPDEST PUSH2 0x133D JUMP JUMPDEST CALLVALUE DUP1 ISZERO PUSH2 0x31E JUMPI PUSH1 0x0 DUP1 REVERT JUMPDEST POP PUSH2 0x157 PUSH32 0x0 DUP2 JUMP JUMPDEST CALLVALUE DUP1 ISZERO PUSH2 0x352 JUMPI PUSH1 0x0 DUP1 REVERT JUMPDEST POP PUSH2 0x2DA PUSH2 0x361 CALLDATASIZE PUSH1 0x4 PUSH2 0x1560 JUMP JUMPDEST PUSH2 0x13BB JUMP JUMPDEST CALLVALUE DUP1 ISZERO PUSH2 0x372 JUMPI PUSH1 0x0 DUP1 REVERT JUMPDEST POP PUSH2 0x2DA PUSH32 0x0 DUP2 JUMP JUMPDEST CALLVALUE DUP1 ISZERO PUSH2 0x3A6 JUMPI PUSH1 0x0 DUP1 REVERT JUMPDEST POP PUSH2 0x157 PUSH2 0x3B5 CALLDATASIZE PUSH1 0x4 PUSH2 0x1652 JUMP JUMPDEST PUSH1 0x5 PUSH1 0x20 MSTORE PUSH1 0x0 SWAP1 DUP2 MSTORE PUSH1 0x40 SWAP1 KECCAK256 SLOAD DUP2 JUMP JUMPDEST PUSH1 0x0 DUP2 GT PUSH2 0x41C JUMPI PUSH1 0x40 MLOAD PUSH3 0x461BCD PUSH1 0xE5 SHL DUP2 MSTORE PUSH1 0x20 PUSH1 0x4 DUP3 ADD DUP2 SWAP1 MSTORE PUSH1 0x24 DUP3 ADD MSTORE PUSH32 0x576166666C653A2043616E6E6F74207075726368617365203020736C6F74732E PUSH1 0x44 DUP3 ADD MSTORE PUSH1 0x64 ADD JUMPDEST PUSH1 0x40 MLOAD DUP1 SWAP2 SUB SWAP1 REVERT JUMPDEST PUSH1 0x6 SLOAD PUSH1 0xFF AND ISZERO ISZERO PUSH1 0x1 EQ PUSH2 0x443 JUMPI PUSH1 0x40 MLOAD PUSH3 0x461BCD PUSH1 0xE5 SHL DUP2 MSTORE PUSH1 0x4 ADD PUSH2 0x413 SWAP1 PUSH2 0x1674 JUMP JUMPDEST PUSH32 0x0 PUSH1 0x3 SLOAD LT PUSH2 0x4C0 JUMPI PUSH1 0x40 MLOAD PUSH3 0x461BCD PUSH1 0xE5 SHL DUP2 MSTORE PUSH1 0x20 PUSH1 0x4 DUP3 ADD MSTORE PUSH1 0x24 DUP1 DUP3 ADD MSTORE PUSH32 0x576166666C653A20416C6C20726166666C6520736C6F7473206172652066696C PUSH1 0x44 DUP3 ADD MSTORE PUSH4 0x3632B217 PUSH1 0xE1 SHL PUSH1 0x64 DUP3 ADD MSTORE PUSH1 0x84 ADD PUSH2 0x413 JUMP JUMPDEST PUSH1 0x2 SLOAD PUSH1 0xFF AND ISZERO PUSH2 0x539 JUMPI PUSH1 0x40 MLOAD PUSH3 0x461BCD PUSH1 0xE5 SHL DUP2 MSTORE PUSH1 0x20 PUSH1 0x4 DUP3 ADD MSTORE PUSH1 0x3A PUSH1 0x24 DUP3 ADD MSTORE PUSH32 0x576166666C653A2043616E6E6F7420707572636861736520736C6F7420616674 PUSH1 0x44 DUP3 ADD MSTORE PUSH32 0x65722077696E6E657220686173206265656E2063686F73656E2E000000000000 PUSH1 0x64 DUP3 ADD MSTORE PUSH1 0x84 ADD PUSH2 0x413 JUMP JUMPDEST PUSH2 0x563 PUSH32 0x0 DUP3 PUSH2 0x16D7 JUMP JUMPDEST CALLVALUE EQ PUSH2 0x5CE JUMPI PUSH1 0x40 MLOAD PUSH3 0x461BCD PUSH1 0xE5 SHL DUP2 MSTORE PUSH1 0x20 PUSH1 0x4 DUP3 ADD MSTORE PUSH1 0x34 PUSH1 0x24 DUP3 ADD MSTORE PUSH32 0x576166666C653A20496E73756666696369656E74204554482070726F76696465 PUSH1 0x44 DUP3 ADD MSTORE PUSH20 0x32103A3790383AB931B430B9B29039B637BA3997 PUSH1 0x61 SHL PUSH1 0x64 DUP3 ADD MSTORE PUSH1 0x84 ADD PUSH2 0x413 JUMP JUMPDEST PUSH1 0x3 SLOAD PUSH2 0x5FB SWAP1 PUSH32 0x0 PUSH2 0x16EE JUMP JUMPDEST DUP2 GT ISZERO PUSH2 0x661 JUMPI PUSH1 0x40 MLOAD PUSH3 0x461BCD PUSH1 0xE5 SHL DUP2 MSTORE PUSH1 0x20 PUSH1 0x4 DUP3 ADD MSTORE PUSH1 0x2E PUSH1 0x24 DUP3 ADD MSTORE PUSH32 0x576166666C653A2052657175657374696E6720746F2070757263686173652074 PUSH1 0x44 DUP3 ADD MSTORE PUSH14 0x37B79036B0B73C9039B637BA3997 PUSH1 0x91 SHL PUSH1 0x64 DUP3 ADD MSTORE PUSH1 0x84 ADD PUSH2 0x413 JUMP JUMPDEST PUSH1 0x0 JUMPDEST DUP2 DUP2 LT ISZERO PUSH2 0x6C0 JUMPI PUSH1 0x4 DUP1 SLOAD PUSH1 0x1 DUP2 ADD DUP3 SSTORE PUSH1 0x0 SWAP2 SWAP1 SWAP2 MSTORE PUSH32 0x8A35ACFBC15FF81A39AE7D344FD709F28E8600B4AA8C65C6B64BFE7FE36BD19B ADD DUP1 SLOAD PUSH1 0x1 PUSH1 0x1 PUSH1 0xA0 SHL SUB NOT AND CALLER OR SWAP1 SSTORE DUP1 PUSH2 0x6B8 DUP2 PUSH2 0x1701 JUMP JUMPDEST SWAP2 POP POP PUSH2 0x664 JUMP JUMPDEST POP DUP1 PUSH1 0x3 SLOAD PUSH2 0x6CF SWAP2 SWAP1 PUSH2 0x171A JUMP JUMPDEST PUSH1 0x3 SSTORE CALLER PUSH1 0x0 SWAP1 DUP2 MSTORE PUSH1 0x5 PUSH1 0x20 MSTORE PUSH1 0x40 SWAP1 KECCAK256 SLOAD PUSH2 0x6ED SWAP1 DUP3 SWAP1 PUSH2 0x171A JUMP JUMPDEST CALLER PUSH1 0x0 DUP2 DUP2 MSTORE PUSH1 0x5 PUSH1 0x20 MSTORE PUSH1 0x40 SWAP1 DUP2 SWAP1 KECCAK256 SWAP3 SWAP1 SWAP3 SSTORE SWAP1 MLOAD PUSH32 0x86E01953521E8CA90CF9568CE180D715096931EF1C18C1343B19C53E5C6E6361 SWAP1 PUSH2 0x733 SWAP1 DUP5 DUP2 MSTORE PUSH1 0x20 ADD SWAP1 JUMP JUMPDEST PUSH1 0x40 MLOAD DUP1 SWAP2 SUB SWAP1 LOG2 POP JUMP JUMPDEST PUSH1 0x0 PUSH32 0x0 PUSH1 0x1 PUSH1 0x1 PUSH1 0xA0 SHL SUB AND DUP6 PUSH1 0x1 PUSH1 0x1 PUSH1 0xA0 SHL SUB AND EQ PUSH2 0x7DE JUMPI PUSH1 0x40 MLOAD PUSH3 0x461BCD PUSH1 0xE5 SHL DUP2 MSTORE PUSH1 0x20 PUSH1 0x4 DUP3 ADD MSTORE PUSH1 0x34 PUSH1 0x24 DUP3 ADD MSTORE PUSH32 0x576166666C653A20526166666C65206E6F7420696E6974696174656420776974 PUSH1 0x44 DUP3 ADD MSTORE PUSH20 0x34103A3434B99027232A1031B7B73A3930B1BA17 PUSH1 0x61 SHL PUSH1 0x64 DUP3 ADD MSTORE PUSH1 0x84 ADD PUSH2 0x413 JUMP JUMPDEST PUSH32 0x0 DUP5 EQ PUSH2 0x864 JUMPI PUSH1 0x40 MLOAD PUSH3 0x461BCD PUSH1 0xE5 SHL DUP2 MSTORE PUSH1 0x20 PUSH1 0x4 DUP3 ADD MSTORE PUSH1 0x2E PUSH1 0x24 DUP3 ADD MSTORE PUSH32 0x576166666C653A20526166666C65206E6F7420696E6974696174656420776974 PUSH1 0x44 DUP3 ADD MSTORE PUSH14 0x34103A3434B99027232A1024A217 PUSH1 0x91 SHL PUSH1 0x64 DUP3 ADD MSTORE PUSH1 0x84 ADD PUSH2 0x413 JUMP JUMPDEST POP PUSH1 0x6 DUP1 SLOAD PUSH1 0xFF NOT AND PUSH1 0x1 OR SWAP1 SSTORE PUSH4 0xA85BD01 PUSH1 0xE1 SHL SWAP6 SWAP5 POP POP POP POP POP JUMP JUMPDEST PUSH1 0x6 SLOAD PUSH1 0xFF AND ISZERO ISZERO PUSH1 0x1 EQ PUSH2 0x900 JUMPI PUSH1 0x40 MLOAD PUSH3 0x461BCD PUSH1 0xE5 SHL DUP2 MSTORE PUSH1 0x20 PUSH1 0x4 DUP3 ADD MSTORE PUSH1 0x3A PUSH1 0x24 DUP3 ADD MSTORE PUSH32 0x576166666C653A2043616E6E6F74206469737572627365204E465420746F2077 PUSH1 0x44 DUP3 ADD MSTORE PUSH32 0x696E6E657220776974686F757420686F6C64696E67204E46542E000000000000 PUSH1 0x64 DUP3 ADD MSTORE PUSH1 0x84 ADD PUSH2 0x413 JUMP JUMPDEST PUSH1 0x2 SLOAD PUSH1 0xFF AND ISZERO ISZERO PUSH1 0x1 EQ PUSH2 0x97D JUMPI PUSH1 0x40 MLOAD PUSH3 0x461BCD PUSH1 0xE5 SHL DUP2 MSTORE PUSH1 0x20 PUSH1 0x4 DUP3 ADD MSTORE PUSH1 0x3F PUSH1 0x24 DUP3 ADD MSTORE PUSH32 0x576166666C653A2043616E6E6F7420646973627572736520746F2077696E6E65 PUSH1 0x44 DUP3 ADD MSTORE PUSH32 0x7220776974686F757420686176696E6720636F6C6C6563746564206F6E652E00 PUSH1 0x64 DUP3 ADD MSTORE PUSH1 0x84 ADD PUSH2 0x413 JUMP JUMPDEST PUSH1 0x1 SLOAD PUSH1 0x0 SUB PUSH2 0x9FF JUMPI PUSH1 0x40 MLOAD PUSH3 0x461BCD PUSH1 0xE5 SHL DUP2 MSTORE PUSH1 0x20 PUSH1 0x4 DUP3 ADD MSTORE PUSH1 0x41 PUSH1 0x24 DUP3 ADD MSTORE PUSH32 0x576166666C653A20506C65617365207761697420666F7220436861696E6C696E PUSH1 0x44 DUP3 ADD MSTORE PUSH32 0x6B2056524620746F20757064617465207468652077696E6E6572206669727374 PUSH1 0x64 DUP3 ADD MSTORE PUSH1 0x17 PUSH1 0xF9 SHL PUSH1 0x84 DUP3 ADD MSTORE PUSH1 0xA4 ADD PUSH2 0x413 JUMP JUMPDEST PUSH1 0x40 MLOAD PUSH1 0x1 PUSH1 0x1 PUSH1 0xA0 SHL SUB PUSH32 0x0 AND SWAP1 SELFBALANCE DUP1 ISZERO PUSH2 0x8FC MUL SWAP2 PUSH1 0x0 DUP2 DUP2 DUP2 DUP6 DUP9 DUP9 CALL SWAP4 POP POP POP POP ISZERO DUP1 ISZERO PUSH2 0xA54 JUMPI RETURNDATASIZE PUSH1 0x0 DUP1 RETURNDATACOPY RETURNDATASIZE PUSH1 0x0 REVERT JUMPDEST POP PUSH1 0x0 PUSH1 0x4 PUSH1 0x3 SLOAD PUSH1 0x1 SLOAD PUSH2 0xA69 SWAP2 SWAP1 PUSH2 0x172D JUMP JUMPDEST DUP2 SLOAD DUP2 LT PUSH2 0xA79 JUMPI PUSH2 0xA79 PUSH2 0x174F JUMP JUMPDEST PUSH1 0x0 SWAP2 DUP3 MSTORE PUSH1 0x20 SWAP1 SWAP2 KECCAK256 ADD SLOAD PUSH1 0x40 MLOAD PUSH4 0x21421707 PUSH1 0xE1 SHL DUP2 MSTORE ADDRESS PUSH1 0x4 DUP3 ADD MSTORE PUSH1 0x1 PUSH1 0x1 PUSH1 0xA0 SHL SUB SWAP2 DUP3 AND PUSH1 0x24 DUP3 ADD DUP2 SWAP1 MSTORE PUSH32 0x0 PUSH1 0x44 DUP4 ADD MSTORE SWAP3 POP PUSH32 0x0 SWAP1 SWAP2 AND SWAP1 PUSH4 0x42842E0E SWAP1 PUSH1 0x64 ADD PUSH1 0x0 PUSH1 0x40 MLOAD DUP1 DUP4 SUB DUP2 PUSH1 0x0 DUP8 DUP1 EXTCODESIZE ISZERO DUP1 ISZERO PUSH2 0xB1A JUMPI PUSH1 0x0 DUP1 REVERT JUMPDEST POP GAS CALL ISZERO DUP1 ISZERO PUSH2 0xB2E JUMPI RETURNDATASIZE PUSH1 0x0 DUP1 RETURNDATACOPY RETURNDATASIZE PUSH1 0x0 REVERT JUMPDEST POP POP PUSH1 0x6 DUP1 SLOAD PUSH1 0xFF NOT AND SWAP1 SSTORE POP POP PUSH1 0x40 MLOAD PUSH1 0x1 PUSH1 0x1 PUSH1 0xA0 SHL SUB DUP3 AND SWAP1 PUSH32 0xA2564FBE9F8E6077ADCF46DFE7C571EAE3B5A67375D138E992F66E4DB4F97526 SWAP1 PUSH1 0x0 SWAP1 LOG2 POP JUMP JUMPDEST CALLER PUSH1 0x1 PUSH1 0x1 PUSH1 0xA0 SHL SUB PUSH32 0x0 AND EQ PUSH2 0xBF9 JUMPI PUSH1 0x40 MLOAD PUSH3 0x461BCD PUSH1 0xE5 SHL DUP2 MSTORE PUSH1 0x20 PUSH1 0x4 DUP3 ADD MSTORE PUSH1 0x25 PUSH1 0x24 DUP3 ADD MSTORE PUSH32 0x576166666C653A204F6E6C79206F776E65722063616E2064656C657465207261 PUSH1 0x44 DUP3 ADD MSTORE PUSH5 0x3333363297 PUSH1 0xD9 SHL PUSH1 0x64 DUP3 ADD MSTORE PUSH1 0x84 ADD PUSH2 0x413 JUMP JUMPDEST PUSH1 0x6 SLOAD PUSH1 0xFF AND ISZERO ISZERO PUSH1 0x1 EQ PUSH2 0xC6D JUMPI PUSH1 0x40 MLOAD PUSH3 0x461BCD PUSH1 0xE5 SHL DUP2 MSTORE PUSH1 0x20 PUSH1 0x4 DUP3 ADD MSTORE PUSH1 0x34 PUSH1 0x24 DUP3 ADD MSTORE PUSH32 0x576166666C653A2043616E6E6F742063616E63656C20726166666C6520776974 PUSH1 0x44 DUP3 ADD MSTORE PUSH20 0x3437BABA103930B3333632B0B136329027232A17 PUSH1 0x61 SHL PUSH1 0x64 DUP3 ADD MSTORE PUSH1 0x84 ADD PUSH2 0x413 JUMP JUMPDEST PUSH1 0x2 SLOAD PUSH1 0xFF AND ISZERO PUSH2 0xCDE JUMPI PUSH1 0x40 MLOAD PUSH3 0x461BCD PUSH1 0xE5 SHL DUP2 MSTORE PUSH1 0x20 PUSH1 0x4 DUP3 ADD MSTORE PUSH1 0x35 PUSH1 0x24 DUP3 ADD MSTORE PUSH32 0x576166666C653A2043616E6E6F742064656C65746520726166666C6520616674 PUSH1 0x44 DUP3 ADD MSTORE PUSH21 0x32B91031B7B63632B1BA34B733903BB4B73732B917 PUSH1 0x59 SHL PUSH1 0x64 DUP3 ADD MSTORE PUSH1 0x84 ADD PUSH2 0x413 JUMP JUMPDEST PUSH1 0x40 MLOAD PUSH4 0x21421707 PUSH1 0xE1 SHL DUP2 MSTORE ADDRESS PUSH1 0x4 DUP3 ADD MSTORE CALLER PUSH1 0x24 DUP3 ADD MSTORE PUSH32 0x0 PUSH1 0x44 DUP3 ADD MSTORE PUSH32 0x0 PUSH1 0x1 PUSH1 0x1 PUSH1 0xA0 SHL SUB AND SWAP1 PUSH4 0x42842E0E SWAP1 PUSH1 0x64 ADD PUSH1 0x0 PUSH1 0x40 MLOAD DUP1 DUP4 SUB DUP2 PUSH1 0x0 DUP8 DUP1 EXTCODESIZE ISZERO DUP1 ISZERO PUSH2 0xD6B JUMPI PUSH1 0x0 DUP1 REVERT JUMPDEST POP GAS CALL ISZERO DUP1 ISZERO PUSH2 0xD7F JUMPI RETURNDATASIZE PUSH1 0x0 DUP1 RETURNDATACOPY RETURNDATASIZE PUSH1 0x0 REVERT JUMPDEST POP POP PUSH1 0x6 DUP1 SLOAD PUSH1 0xFF NOT AND SWAP1 SSTORE POP POP PUSH1 0x3 SLOAD PUSH1 0x0 SWAP1 PUSH2 0xD9F SWAP1 PUSH1 0x1 SWAP1 PUSH2 0x16EE JUMP JUMPDEST SWAP1 POP JUMPDEST PUSH1 0x4 DUP2 DUP2 SLOAD DUP2 LT PUSH2 0xDB5 JUMPI PUSH2 0xDB5 PUSH2 0x174F JUMP JUMPDEST PUSH1 0x0 SWAP2 DUP3 MSTORE PUSH1 0x20 DUP3 KECCAK256 ADD SLOAD PUSH1 0x40 MLOAD PUSH1 0x1 PUSH1 0x1 PUSH1 0xA0 SHL SUB SWAP1 SWAP2 AND SWAP2 PUSH32 0x0 DUP1 ISZERO PUSH2 0x8FC MUL SWAP3 SWAP1 SWAP2 DUP2 DUP2 DUP2 DUP6 DUP9 DUP9 CALL SWAP4 POP POP POP POP ISZERO DUP1 ISZERO PUSH2 0xE16 JUMPI RETURNDATASIZE PUSH1 0x0 DUP1 RETURNDATACOPY RETURNDATASIZE PUSH1 0x0 REVERT JUMPDEST POP PUSH1 0x4 DUP1 SLOAD DUP1 PUSH2 0xE28 JUMPI PUSH2 0xE28 PUSH2 0x1765 JUMP JUMPDEST PUSH1 0x0 DUP3 DUP2 MSTORE PUSH1 0x20 SWAP1 KECCAK256 DUP2 ADD PUSH1 0x0 NOT SWAP1 DUP2 ADD DUP1 SLOAD PUSH1 0x1 PUSH1 0x1 PUSH1 0xA0 SHL SUB NOT AND SWAP1 SSTORE ADD SWAP1 SSTORE DUP1 PUSH2 0xE54 DUP2 PUSH2 0x177B JUMP JUMPDEST SWAP2 POP POP PUSH2 0xDA2 JUMP JUMPDEST PUSH1 0x6 SLOAD PUSH1 0xFF AND ISZERO ISZERO PUSH1 0x1 EQ PUSH2 0xE83 JUMPI PUSH1 0x40 MLOAD PUSH3 0x461BCD PUSH1 0xE5 SHL DUP2 MSTORE PUSH1 0x4 ADD PUSH2 0x413 SWAP1 PUSH2 0x1674 JUMP JUMPDEST PUSH1 0x2 SLOAD PUSH1 0xFF AND ISZERO PUSH2 0xEFC JUMPI PUSH1 0x40 MLOAD PUSH3 0x461BCD PUSH1 0xE5 SHL DUP2 MSTORE PUSH1 0x20 PUSH1 0x4 DUP3 ADD MSTORE PUSH1 0x38 PUSH1 0x24 DUP3 ADD MSTORE PUSH32 0x576166666C653A2043616E6E6F7420726566756E6420736C6F74206166746572 PUSH1 0x44 DUP3 ADD MSTORE PUSH32 0x2077696E6E657220686173206265656E2063686F73656E2E0000000000000000 PUSH1 0x64 DUP3 ADD MSTORE PUSH1 0x84 ADD PUSH2 0x413 JUMP JUMPDEST CALLER PUSH1 0x0 SWAP1 DUP2 MSTORE PUSH1 0x5 PUSH1 0x20 MSTORE PUSH1 0x40 SWAP1 KECCAK256 SLOAD DUP2 GT ISZERO PUSH2 0xF81 JUMPI PUSH1 0x40 MLOAD PUSH3 0x461BCD PUSH1 0xE5 SHL DUP2 MSTORE PUSH1 0x20 PUSH1 0x4 DUP3 ADD MSTORE PUSH1 0x37 PUSH1 0x24 DUP3 ADD MSTORE PUSH32 0x576166666C653A204164647265737320646F6573206E6F74206F776E206E756D PUSH1 0x44 DUP3 ADD MSTORE PUSH32 0x626572206F662072657175657374656420736C6F74732E000000000000000000 PUSH1 0x64 DUP3 ADD MSTORE PUSH1 0x84 ADD PUSH2 0x413 JUMP JUMPDEST PUSH1 0x0 DUP2 JUMPDEST PUSH1 0x4 SLOAD DUP3 LT DUP1 ISZERO PUSH2 0xF96 JUMPI POP PUSH1 0x0 DUP2 GT JUMPDEST ISZERO PUSH2 0x10A3 JUMPI CALLER PUSH1 0x1 PUSH1 0x1 PUSH1 0xA0 SHL SUB AND PUSH1 0x4 DUP4 DUP2 SLOAD DUP2 LT PUSH2 0xFB8 JUMPI PUSH2 0xFB8 PUSH2 0x174F JUMP JUMPDEST PUSH1 0x0 SWAP2 DUP3 MSTORE PUSH1 0x20 SWAP1 SWAP2 KECCAK256 ADD SLOAD PUSH1 0x1 PUSH1 0x1 PUSH1 0xA0 SHL SUB AND EQ PUSH2 0xFE4 JUMPI DUP2 PUSH2 0xFDC DUP2 PUSH2 0x1701 JUMP JUMPDEST SWAP3 POP POP PUSH2 0xF85 JUMP JUMPDEST PUSH1 0x4 DUP1 SLOAD PUSH2 0xFF4 SWAP1 PUSH1 0x1 SWAP1 PUSH2 0x16EE JUMP JUMPDEST DUP2 SLOAD DUP2 LT PUSH2 0x1004 JUMPI PUSH2 0x1004 PUSH2 0x174F JUMP JUMPDEST PUSH1 0x0 SWAP2 DUP3 MSTORE PUSH1 0x20 SWAP1 SWAP2 KECCAK256 ADD SLOAD PUSH1 0x4 DUP1 SLOAD PUSH1 0x1 PUSH1 0x1 PUSH1 0xA0 SHL SUB SWAP1 SWAP3 AND SWAP2 DUP5 SWAP1 DUP2 LT PUSH2 0x1030 JUMPI PUSH2 0x1030 PUSH2 0x174F JUMP JUMPDEST SWAP1 PUSH1 0x0 MSTORE PUSH1 0x20 PUSH1 0x0 KECCAK256 ADD PUSH1 0x0 PUSH2 0x100 EXP DUP2 SLOAD DUP2 PUSH1 0x1 PUSH1 0x1 PUSH1 0xA0 SHL SUB MUL NOT AND SWAP1 DUP4 PUSH1 0x1 PUSH1 0x1 PUSH1 0xA0 SHL SUB AND MUL OR SWAP1 SSTORE POP PUSH1 0x4 DUP1 SLOAD DUP1 PUSH2 0x106F JUMPI PUSH2 0x106F PUSH2 0x1765 JUMP JUMPDEST PUSH1 0x0 DUP3 DUP2 MSTORE PUSH1 0x20 SWAP1 KECCAK256 DUP2 ADD PUSH1 0x0 NOT SWAP1 DUP2 ADD DUP1 SLOAD PUSH1 0x1 PUSH1 0x1 PUSH1 0xA0 SHL SUB NOT AND SWAP1 SSTORE ADD SWAP1 SSTORE DUP1 PUSH2 0x109B DUP2 PUSH2 0x177B JUMP JUMPDEST SWAP2 POP POP PUSH2 0xF85 JUMP JUMPDEST CALLER PUSH2 0x8FC PUSH2 0x10D1 PUSH32 0x0 DUP7 PUSH2 0x16D7 JUMP JUMPDEST PUSH1 0x40 MLOAD DUP2 ISZERO SWAP1 SWAP3 MUL SWAP2 PUSH1 0x0 DUP2 DUP2 DUP2 DUP6 DUP9 DUP9 CALL SWAP4 POP POP POP POP ISZERO DUP1 ISZERO PUSH2 0x10F9 JUMPI RETURNDATASIZE PUSH1 0x0 DUP1 RETURNDATACOPY RETURNDATASIZE PUSH1 0x0 REVERT JUMPDEST POP DUP3 PUSH1 0x3 SLOAD PUSH2 0x1108 SWAP2 SWAP1 PUSH2 0x16EE JUMP JUMPDEST PUSH1 0x3 SSTORE CALLER PUSH1 0x0 SWAP1 DUP2 MSTORE PUSH1 0x5 PUSH1 0x20 MSTORE PUSH1 0x40 SWAP1 KECCAK256 SLOAD PUSH2 0x1126 SWAP1 DUP5 SWAP1 PUSH2 0x16EE JUMP JUMPDEST CALLER PUSH1 0x0 DUP2 DUP2 MSTORE PUSH1 0x5 PUSH1 0x20 MSTORE PUSH1 0x40 SWAP1 DUP2 SWAP1 KECCAK256 SWAP3 SWAP1 SWAP3 SSTORE SWAP1 MLOAD PUSH32 0xE8E3157B474707A4AD53AA38CA233AC428BB08F705EB304F0859D2A884C88002 SWAP1 PUSH2 0x116C SWAP1 DUP7 DUP2 MSTORE PUSH1 0x20 ADD SWAP1 JUMP JUMPDEST PUSH1 0x40 MLOAD DUP1 SWAP2 SUB SWAP1 LOG2 POP POP POP JUMP JUMPDEST PUSH1 0x0 DUP1 PUSH1 0x3 SLOAD GT PUSH2 0x11CC JUMPI PUSH1 0x40 MLOAD PUSH3 0x461BCD PUSH1 0xE5 SHL DUP2 MSTORE PUSH1 0x20 PUSH1 0x4 DUP3 ADD MSTORE PUSH1 0x1B PUSH1 0x24 DUP3 ADD MSTORE PUSH32 0x576166666C653A204E6F20736C6F7473206172652066696C6C65640000000000 PUSH1 0x44 DUP3 ADD MSTORE PUSH1 0x64 ADD PUSH2 0x413 JUMP JUMPDEST PUSH1 0x6 SLOAD PUSH1 0xFF AND ISZERO ISZERO PUSH1 0x1 EQ PUSH2 0x11F3 JUMPI PUSH1 0x40 MLOAD PUSH3 0x461BCD PUSH1 0xE5 SHL DUP2 MSTORE PUSH1 0x4 ADD PUSH2 0x413 SWAP1 PUSH2 0x1674 JUMP JUMPDEST CALLER PUSH1 0x1 PUSH1 0x1 PUSH1 0xA0 SHL SUB PUSH32 0x0 AND EQ PUSH2 0x1282 JUMPI PUSH1 0x40 MLOAD PUSH3 0x461BCD PUSH1 0xE5 SHL DUP2 MSTORE PUSH1 0x20 PUSH1 0x4 DUP3 ADD MSTORE PUSH1 0x2E PUSH1 0x24 DUP3 ADD MSTORE PUSH32 0x576166666C653A204F6E6C79206F776E65722063616E2063616C6C2077696E6E PUSH1 0x44 DUP3 ADD MSTORE PUSH14 0x32B91031B7B63632B1BA34B7B717 PUSH1 0x91 SHL PUSH1 0x64 DUP3 ADD MSTORE PUSH1 0x84 ADD PUSH2 0x413 JUMP JUMPDEST PUSH1 0x2 SLOAD PUSH1 0xFF AND ISZERO PUSH2 0x12E1 JUMPI PUSH1 0x40 MLOAD PUSH3 0x461BCD PUSH1 0xE5 SHL DUP2 MSTORE PUSH1 0x20 PUSH1 0x4 DUP3 ADD MSTORE PUSH1 0x24 DUP1 DUP3 ADD MSTORE PUSH32 0x576166666C653A2043616E6E6F7420636F6C6C6563742077696E6E6572207477 PUSH1 0x44 DUP3 ADD MSTORE PUSH4 0x34B1B297 PUSH1 0xE1 SHL PUSH1 0x64 DUP3 ADD MSTORE PUSH1 0x84 ADD PUSH2 0x413 JUMP JUMPDEST PUSH1 0x2 DUP1 SLOAD PUSH1 0xFF NOT AND PUSH1 0x1 OR SWAP1 SSTORE PUSH2 0x1338 PUSH32 0x0 PUSH32 0x0 PUSH2 0x13E5 JUMP JUMPDEST SWAP1 POP SWAP1 JUMP JUMPDEST CALLER PUSH1 0x1 PUSH1 0x1 PUSH1 0xA0 SHL SUB PUSH32 0x0 AND EQ PUSH2 0x13B5 JUMPI PUSH1 0x40 MLOAD PUSH3 0x461BCD PUSH1 0xE5 SHL DUP2 MSTORE PUSH1 0x20 PUSH1 0x4 DUP3 ADD MSTORE PUSH1 0x1F PUSH1 0x24 DUP3 ADD MSTORE PUSH32 0x4F6E6C7920565246436F6F7264696E61746F722063616E2066756C66696C6C00 PUSH1 0x44 DUP3 ADD MSTORE PUSH1 0x64 ADD PUSH2 0x413 JUMP JUMPDEST PUSH1 0x1 SSTORE POP JUMP JUMPDEST PUSH1 0x4 DUP2 DUP2 SLOAD DUP2 LT PUSH2 0x13CB JUMPI PUSH1 0x0 DUP1 REVERT JUMPDEST PUSH1 0x0 SWAP2 DUP3 MSTORE PUSH1 0x20 SWAP1 SWAP2 KECCAK256 ADD SLOAD PUSH1 0x1 PUSH1 0x1 PUSH1 0xA0 SHL SUB AND SWAP1 POP DUP2 JUMP JUMPDEST PUSH1 0x0 PUSH32 0x0 PUSH1 0x1 PUSH1 0x1 PUSH1 0xA0 SHL SUB AND PUSH4 0x4000AEA0 PUSH32 0x0 DUP5 DUP7 PUSH1 0x0 PUSH1 0x40 MLOAD PUSH1 0x20 ADD PUSH2 0x1455 SWAP3 SWAP2 SWAP1 SWAP2 DUP3 MSTORE PUSH1 0x20 DUP3 ADD MSTORE PUSH1 0x40 ADD SWAP1 JUMP JUMPDEST PUSH1 0x40 MLOAD PUSH1 0x20 DUP2 DUP4 SUB SUB DUP2 MSTORE SWAP1 PUSH1 0x40 MSTORE PUSH1 0x40 MLOAD DUP5 PUSH4 0xFFFFFFFF AND PUSH1 0xE0 SHL DUP2 MSTORE PUSH1 0x4 ADD PUSH2 0x1482 SWAP4 SWAP3 SWAP2 SWAP1 PUSH2 0x1792 JUMP JUMPDEST PUSH1 0x20 PUSH1 0x40 MLOAD DUP1 DUP4 SUB DUP2 PUSH1 0x0 DUP8 GAS CALL ISZERO DUP1 ISZERO PUSH2 0x14A1 JUMPI RETURNDATASIZE PUSH1 0x0 DUP1 RETURNDATACOPY RETURNDATASIZE PUSH1 0x0 REVERT JUMPDEST POP POP POP POP PUSH1 0x40 MLOAD RETURNDATASIZE PUSH1 0x1F NOT PUSH1 0x1F DUP3 ADD AND DUP3 ADD DUP1 PUSH1 0x40 MSTORE POP DUP2 ADD SWAP1 PUSH2 0x14C5 SWAP2 SWAP1 PUSH2 0x17F7 JUMP JUMPDEST POP PUSH1 0x0 DUP4 DUP2 MSTORE PUSH1 0x20 DUP2 DUP2 MSTORE PUSH1 0x40 DUP1 DUP4 KECCAK256 SLOAD DUP2 MLOAD DUP1 DUP5 ADD DUP9 SWAP1 MSTORE DUP1 DUP4 ADD DUP6 SWAP1 MSTORE ADDRESS PUSH1 0x60 DUP3 ADD MSTORE PUSH1 0x80 DUP1 DUP3 ADD DUP4 SWAP1 MSTORE DUP4 MLOAD DUP1 DUP4 SUB SWAP1 SWAP2 ADD DUP2 MSTORE PUSH1 0xA0 SWAP1 SWAP2 ADD SWAP1 SWAP3 MSTORE DUP2 MLOAD SWAP2 DUP4 ADD SWAP2 SWAP1 SWAP2 KECCAK256 DUP7 DUP5 MSTORE SWAP3 SWAP1 SWAP2 MSTORE PUSH2 0x151F SWAP1 PUSH1 0x1 PUSH2 0x171A JUMP JUMPDEST PUSH1 0x0 DUP6 DUP2 MSTORE PUSH1 0x20 DUP2 DUP2 MSTORE PUSH1 0x40 SWAP2 DUP3 SWAP1 KECCAK256 SWAP3 SWAP1 SWAP3 SSTORE DUP1 MLOAD DUP1 DUP4 ADD DUP8 SWAP1 MSTORE DUP1 DUP3 ADD SWAP4 SWAP1 SWAP4 MSTORE DUP1 MLOAD DUP1 DUP5 SUB DUP3 ADD DUP2 MSTORE PUSH1 0x60 SWAP1 SWAP4 ADD SWAP1 MSTORE DUP2 MLOAD SWAP2 ADD KECCAK256 SWAP1 POP JUMPDEST SWAP3 SWAP2 POP POP JUMP JUMPDEST PUSH1 0x0 PUSH1 0x20 DUP3 DUP5 SUB SLT ISZERO PUSH2 0x1572 JUMPI PUSH1 0x0 DUP1 REVERT JUMPDEST POP CALLDATALOAD SWAP2 SWAP1 POP JUMP JUMPDEST DUP1 CALLDATALOAD PUSH1 0x1 PUSH1 0x1 PUSH1 0xA0 SHL SUB DUP2 AND DUP2 EQ PUSH2 0x1590 JUMPI PUSH1 0x0 DUP1 REVERT JUMPDEST SWAP2 SWAP1 POP JUMP JUMPDEST PUSH1 0x0 DUP1 PUSH1 0x0 DUP1 PUSH1 0x0 PUSH1 0x80 DUP7 DUP9 SUB SLT ISZERO PUSH2 0x15AD JUMPI PUSH1 0x0 DUP1 REVERT JUMPDEST PUSH2 0x15B6 DUP7 PUSH2 0x1579 JUMP JUMPDEST SWAP5 POP PUSH2 0x15C4 PUSH1 0x20 DUP8 ADD PUSH2 0x1579 JUMP JUMPDEST SWAP4 POP PUSH1 0x40 DUP7 ADD CALLDATALOAD SWAP3 POP PUSH1 0x60 DUP7 ADD CALLDATALOAD PUSH8 0xFFFFFFFFFFFFFFFF DUP1 DUP3 GT ISZERO PUSH2 0x15E8 JUMPI PUSH1 0x0 DUP1 REVERT JUMPDEST DUP2 DUP9 ADD SWAP2 POP DUP9 PUSH1 0x1F DUP4 ADD SLT PUSH2 0x15FC JUMPI PUSH1 0x0 DUP1 REVERT JUMPDEST DUP2 CALLDATALOAD DUP2 DUP2 GT ISZERO PUSH2 0x160B JUMPI PUSH1 0x0 DUP1 REVERT JUMPDEST DUP10 PUSH1 0x20 DUP3 DUP6 ADD ADD GT ISZERO PUSH2 0x161D JUMPI PUSH1 0x0 DUP1 REVERT JUMPDEST SWAP7 SWAP10 SWAP6 SWAP9 POP SWAP4 SWAP7 POP PUSH1 0x20 ADD SWAP5 SWAP4 SWAP3 POP POP POP JUMP JUMPDEST PUSH1 0x0 DUP1 PUSH1 0x40 DUP4 DUP6 SUB SLT ISZERO PUSH2 0x1643 JUMPI PUSH1 0x0 DUP1 REVERT JUMPDEST POP POP DUP1 CALLDATALOAD SWAP3 PUSH1 0x20 SWAP1 SWAP2 ADD CALLDATALOAD SWAP2 POP JUMP JUMPDEST PUSH1 0x0 PUSH1 0x20 DUP3 DUP5 SUB SLT ISZERO PUSH2 0x1664 JUMPI PUSH1 0x0 DUP1 REVERT JUMPDEST PUSH2 0x166D DUP3 PUSH2 0x1579 JUMP JUMPDEST SWAP4 SWAP3 POP POP POP JUMP JUMPDEST PUSH1 0x20 DUP1 DUP3 MSTORE PUSH1 0x2D SWAP1 DUP3 ADD MSTORE PUSH32 0x576166666C653A20436F6E747261637420646F6573206E6F74206F776E207261 PUSH1 0x40 DUP3 ADD MSTORE PUSH13 0x33333632B0B136329027232A17 PUSH1 0x99 SHL PUSH1 0x60 DUP3 ADD MSTORE PUSH1 0x80 ADD SWAP1 JUMP JUMPDEST PUSH4 0x4E487B71 PUSH1 0xE0 SHL PUSH1 0x0 MSTORE PUSH1 0x11 PUSH1 0x4 MSTORE PUSH1 0x24 PUSH1 0x0 REVERT JUMPDEST DUP1 DUP3 MUL DUP2 ISZERO DUP3 DUP3 DIV DUP5 EQ OR PUSH2 0x155A JUMPI PUSH2 0x155A PUSH2 0x16C1 JUMP JUMPDEST DUP2 DUP2 SUB DUP2 DUP2 GT ISZERO PUSH2 0x155A JUMPI PUSH2 0x155A PUSH2 0x16C1 JUMP JUMPDEST PUSH1 0x0 PUSH1 0x1 DUP3 ADD PUSH2 0x1713 JUMPI PUSH2 0x1713 PUSH2 0x16C1 JUMP JUMPDEST POP PUSH1 0x1 ADD SWAP1 JUMP JUMPDEST DUP1 DUP3 ADD DUP1 DUP3 GT ISZERO PUSH2 0x155A JUMPI PUSH2 0x155A PUSH2 0x16C1 JUMP JUMPDEST PUSH1 0x0 DUP3 PUSH2 0x174A JUMPI PUSH4 0x4E487B71 PUSH1 0xE0 SHL PUSH1 0x0 MSTORE PUSH1 0x12 PUSH1 0x4 MSTORE PUSH1 0x24 PUSH1 0x0 REVERT JUMPDEST POP MOD SWAP1 JUMP JUMPDEST PUSH4 0x4E487B71 PUSH1 0xE0 SHL PUSH1 0x0 MSTORE PUSH1 0x32 PUSH1 0x4 MSTORE PUSH1 0x24 PUSH1 0x0 REVERT JUMPDEST PUSH4 0x4E487B71 PUSH1 0xE0 SHL PUSH1 0x0 MSTORE PUSH1 0x31 PUSH1 0x4 MSTORE PUSH1 0x24 PUSH1 0x0 REVERT JUMPDEST PUSH1 0x0 DUP2 PUSH2 0x178A JUMPI PUSH2 0x178A PUSH2 0x16C1 JUMP JUMPDEST POP PUSH1 0x0 NOT ADD SWAP1 JUMP JUMPDEST PUSH1 0x1 DUP1 PUSH1 0xA0 SHL SUB DUP5 AND DUP2 MSTORE PUSH1 0x0 PUSH1 0x20 DUP5 DUP2 DUP5 ADD MSTORE PUSH1 0x60 PUSH1 0x40 DUP5 ADD MSTORE DUP4 MLOAD DUP1 PUSH1 0x60 DUP6 ADD MSTORE PUSH1 0x0 JUMPDEST DUP2 DUP2 LT ISZERO PUSH2 0x17D4 JUMPI DUP6 DUP2 ADD DUP4 ADD MLOAD DUP6 DUP3 ADD PUSH1 0x80 ADD MSTORE DUP3 ADD PUSH2 0x17B8 JUMP JUMPDEST POP PUSH1 0x0 PUSH1 0x80 DUP3 DUP7 ADD ADD MSTORE PUSH1 0x80 PUSH1 0x1F NOT PUSH1 0x1F DUP4 ADD AND DUP6 ADD ADD SWAP3 POP POP POP SWAP5 SWAP4 POP POP POP POP JUMP JUMPDEST PUSH1 0x0 PUSH1 0x20 DUP3 DUP5 SUB SLT ISZERO PUSH2 0x1809 JUMPI PUSH1 0x0 DUP1 REVERT JUMPDEST DUP2 MLOAD DUP1 ISZERO ISZERO DUP2 EQ PUSH2 0x166D JUMPI PUSH1 0x0 DUP1 REVERT INVALID LOG2 PUSH5 0x6970667358 0x22 SLT KECCAK256 SUB 0xDD SWAP7 0xC6 0xE1 CALLDATALOAD SHR NUMBER PUSH27 0xD50D526E3CDED2BF7E7F7569267E843DDD8CD93D80FE9D64736F6C PUSH4 0x43000811 STOP CALLER "},"methodIdentifiers":{"addressToSlotsOwned(address)":"fd1fbdd1","collectRandomWinner()":"2f8b7414","deleteRaffle()":"1b355bd8","disburseWinner()":"1a8cef9a","nftContract()":"d56d229d","nftID()":"c3994752","nftOwned()":"15cc7b2a","numSlotsAvailable()":"7489ce48","numSlotsFilled()":"5d1cf7ea","onERC721Received(address,address,uint256,bytes)":"150b7a02","owner()":"8da5cb5b","purchaseSlot(uint256)":"04c60eae","randomResult()":"42619f66","randomResultRequested()":"47984f2c","rawFulfillRandomness(bytes32,uint256)":"94985ddd","refundSlot(uint256)":"201c5343","slotOwners(uint256)":"ce16097e","slotPrice()":"04e04656"}}}}}