{
  "_format": "hh-sol-artifact-1",
  "contractName": "NFTTicketSaleContract",
  "sourceName": "contracts/Contract.sol",
  "abi": [
    {
      "inputs": [
        {
          "internalType": "address",
          "name": "_vrfCoordinator",
          "type": "address"
        },
        {
          "internalType": "address",
          "name": "_linkToken",
          "type": "address"
        },
        {
          "internalType": "bytes32",
          "name": "_keyHash",
          "type": "bytes32"
        },
        {
          "internalType": "uint256",
          "name": "_fee",
          "type": "uint256"
        },
        {
          "internalType": "uint256",
          "name": "_startTime",
          "type": "uint256"
        },
        {
          "internalType": "uint256",
          "name": "_endTime",
          "type": "uint256"
        },
        {
          "internalType": "uint256",
          "name": "_priceOfTicket",
          "type": "uint256"
        }
      ],
      "stateMutability": "nonpayable",
      "type": "constructor"
    },
    {
      "anonymous": false,
      "inputs": [
        {
          "indexed": true,
          "internalType": "address",
          "name": "deployer",
          "type": "address"
        },
        {
          "indexed": true,
          "internalType": "address",
          "name": "nftAddress",
          "type": "address"
        }
      ],
      "name": "NFTDeposit",
      "type": "event"
    },
    {
      "anonymous": false,
      "inputs": [
        {
          "indexed": true,
          "internalType": "address",
          "name": "participant",
          "type": "address"
        },
        {
          "indexed": false,
          "internalType": "uint256",
          "name": "ticketAmount",
          "type": "uint256"
        }
      ],
      "name": "TicketPurchase",
      "type": "event"
    },
    {
      "anonymous": false,
      "inputs": [
        {
          "indexed": true,
          "internalType": "address",
          "name": "winner",
          "type": "address"
        }
      ],
      "name": "WinnerSelected",
      "type": "event"
    },
    {
      "inputs": [],
      "name": "deployer",
      "outputs": [
        {
          "internalType": "address",
          "name": "",
          "type": "address"
        }
      ],
      "stateMutability": "view",
      "type": "function"
    },
    {
      "inputs": [
        {
          "internalType": "address",
          "name": "_nftAddress",
          "type": "address"
        },
        {
          "internalType": "uint256",
          "name": "_nftId",
          "type": "uint256"
        }
      ],
      "name": "depositNFT",
      "outputs": [],
      "stateMutability": "nonpayable",
      "type": "function"
    },
    {
      "inputs": [],
      "name": "endTime",
      "outputs": [
        {
          "internalType": "uint256",
          "name": "",
          "type": "uint256"
        }
      ],
      "stateMutability": "view",
      "type": "function"
    },
    {
      "inputs": [],
      "name": "getAllParticipantAddresses",
      "outputs": [
        {
          "internalType": "address[]",
          "name": "",
          "type": "address[]"
        }
      ],
      "stateMutability": "view",
      "type": "function"
    },
    {
      "inputs": [],
      "name": "getTotalTicketCount",
      "outputs": [
        {
          "internalType": "uint256",
          "name": "",
          "type": "uint256"
        }
      ],
      "stateMutability": "view",
      "type": "function"
    },
    {
      "inputs": [
        {
          "internalType": "address",
          "name": "",
          "type": "address"
        },
        {
          "internalType": "address",
          "name": "",
          "type": "address"
        },
        {
          "internalType": "uint256",
          "name": "",
          "type": "uint256"
        },
        {
          "internalType": "bytes",
          "name": "",
          "type": "bytes"
        }
      ],
      "name": "onERC721Received",
      "outputs": [
        {
          "internalType": "bytes4",
          "name": "",
          "type": "bytes4"
        }
      ],
      "stateMutability": "nonpayable",
      "type": "function"
    },
    {
      "inputs": [],
      "name": "priceOfTicket",
      "outputs": [
        {
          "internalType": "uint256",
          "name": "",
          "type": "uint256"
        }
      ],
      "stateMutability": "view",
      "type": "function"
    },
    {
      "inputs": [
        {
          "internalType": "uint256",
          "name": "_ticketAmount",
          "type": "uint256"
        }
      ],
      "name": "purchaseTicket",
      "outputs": [],
      "stateMutability": "payable",
      "type": "function"
    },
    {
      "inputs": [],
      "name": "randomResult",
      "outputs": [
        {
          "internalType": "uint256",
          "name": "",
          "type": "uint256"
        }
      ],
      "stateMutability": "view",
      "type": "function"
    },
    {
      "inputs": [
        {
          "internalType": "bytes32",
          "name": "requestId",
          "type": "bytes32"
        },
        {
          "internalType": "uint256",
          "name": "randomness",
          "type": "uint256"
        }
      ],
      "name": "rawFulfillRandomness",
      "outputs": [],
      "stateMutability": "nonpayable",
      "type": "function"
    },
    {
      "inputs": [],
      "name": "selectWinner",
      "outputs": [
        {
          "internalType": "bytes32",
          "name": "requestId",
          "type": "bytes32"
        }
      ],
      "stateMutability": "nonpayable",
      "type": "function"
    },
    {
      "inputs": [],
      "name": "startTime",
      "outputs": [
        {
          "internalType": "uint256",
          "name": "",
          "type": "uint256"
        }
      ],
      "stateMutability": "view",
      "type": "function"
    },
    {
      "inputs": [
        {
          "internalType": "address",
          "name": "",
          "type": "address"
        }
      ],
      "name": "ticketPurchases",
      "outputs": [
        {
          "internalType": "uint256",
          "name": "",
          "type": "uint256"
        }
      ],
      "stateMutability": "view",
      "type": "function"
    },
    {
      "inputs": [],
      "name": "winner",
      "outputs": [
        {
          "internalType": "address",
          "name": "",
          "type": "address"
        }
      ],
      "stateMutability": "view",
      "type": "function"
    }
  ],
  "bytecode": "0x60c060405234801561001057600080fd5b50604051610fba380380610fba83398101604081905261002f91610089565b6001600160a01b0396871660a05295909416608052600592909255600655600155600255600355600880546001600160a01b031916331790556100eb565b80516001600160a01b038116811461008457600080fd5b919050565b600080600080600080600060e0888a0312156100a457600080fd5b6100ad8861006d565b96506100bb6020890161006d565b604089015160608a015160808b015160a08c015160c0909c01519a9d939c50919a90999198509650945092505050565b60805160a051610e9c61011e6000396000818161055201526109a701526000818161039201526109780152610e9c6000f3fe6080604052600436106100dc5760003560e01c806394985ddd1161007f578063cf0b0ca711610059578063cf0b0ca71461021d578063d0b8757914610232578063d5f394881461025f578063dfbf53ae1461029757600080fd5b806394985ddd146101c85780639b5b9b18146101ea578063b948348c1461020a57600080fd5b806333a99e04116100bb57806333a99e041461016557806342619f661461017a578063688114311461019057806378e97925146101b257600080fd5b8062a70e03146100e1578063150b7a021461010a5780633197cbb61461014f575b600080fd5b3480156100ed57600080fd5b506100f760035481565b6040519081526020015b60405180910390f35b34801561011657600080fd5b50610136610125366004610ba1565b630a85bd0160e11b95945050505050565b6040516001600160e01b03199091168152602001610101565b34801561015b57600080fd5b506100f760025481565b34801561017157600080fd5b506100f76102b7565b34801561018657600080fd5b506100f760075481565b34801561019c57600080fd5b506101a5610475565b6040516101019190610c40565b3480156101be57600080fd5b506100f760015481565b3480156101d457600080fd5b506101e86101e3366004610c8d565b610547565b005b3480156101f657600080fd5b506101e8610205366004610caf565b6105cd565b6101e8610218366004610cdb565b6107dd565b34801561022957600080fd5b506100f76108f4565b34801561023e57600080fd5b506100f761024d366004610cf4565b60096020526000908152604090205481565b34801561026b57600080fd5b5060085461027f906001600160a01b031681565b6040516001600160a01b039091168152602001610101565b3480156102a357600080fd5b5060045461027f906001600160a01b031681565b6008546000906001600160a01b031633146103295760405162461bcd60e51b815260206004820152602760248201527f4f6e6c7920746865206465706c6f7965722063616e2073656c65637420746865604482015266103bb4b73732b960c91b60648201526084015b60405180910390fd5b600254421161037a5760405162461bcd60e51b815260206004820152601b60248201527f5469636b65742073616c65206973207374696c6c2061637469766500000000006044820152606401610320565b6006546040516370a0823160e01b81523060048201527f00000000000000000000000000000000000000000000000000000000000000006001600160a01b0316906370a0823190602401602060405180830381865afa1580156103e1573d6000803e3d6000fd5b505050506040513d601f19601f820116820180604052508101906104059190610d18565b10156104625760405162461bcd60e51b815260206004820152602660248201527f4e6f7420656e6f756768204c494e4b20746f6b656e7320696e2074686520636f6044820152651b9d1c9858dd60d21b6064820152608401610320565b610470600554600654610974565b905090565b604080516000808252602082019092526060919060005b8151811015610540576000600960008484815181106104ad576104ad610d31565b60200260200101516001600160a01b03166001600160a01b0316815260200190815260200160002054111561052e578181815181106104ee576104ee610d31565b602002602001015182848151811061050857610508610d31565b6001600160a01b03909216602092830291909101909101528261052a81610d5d565b9350505b8061053881610d5d565b91505061048c565b5092915050565b336001600160a01b037f000000000000000000000000000000000000000000000000000000000000000016146105bf5760405162461bcd60e51b815260206004820152601f60248201527f4f6e6c7920565246436f6f7264696e61746f722063616e2066756c66696c6c006044820152606401610320565b6105c98282610aef565b5050565b6001600160a01b0382166106195760405162461bcd60e51b8152602060048201526013602482015272496e76616c6964204e4654206164647265737360681b6044820152606401610320565b6040516331a9108f60e11b815260048101829052829033906001600160a01b03831690636352211e90602401602060405180830381865afa158015610662573d6000803e3d6000fd5b505050506040513d601f19601f820116820180604052508101906106869190610d76565b6001600160a01b0316146106dc5760405162461bcd60e51b815260206004820181905260248201527f596f7520617265206e6f7420746865206f776e6572206f6620746865204e46546044820152606401610320565b60405163095ea7b360e01b8152306004820152602481018390526001600160a01b0382169063095ea7b390604401600060405180830381600087803b15801561072457600080fd5b505af1158015610738573d6000803e3d6000fd5b50506040516323b872dd60e01b8152336004820152306024820152604481018590526001600160a01b03841692506323b872dd9150606401600060405180830381600087803b15801561078a57600080fd5b505af115801561079e573d6000803e3d6000fd5b50506040516001600160a01b03861692503391507f570240dcd630f5b3c4e4560d61672f2952fd35d31f90448318f28804557a581c90600090a3505050565b60015442101580156107f157506002544211155b61083d5760405162461bcd60e51b815260206004820152601960248201527f5469636b65742073616c65206973206e6f7420616374697665000000000000006044820152606401610320565b60035461084a9082610d93565b34146108985760405162461bcd60e51b815260206004820152601f60248201527f496e636f7272656374207469636b6574207061796d656e7420616d6f756e74006044820152606401610320565b33600090815260096020526040812080548392906108b7908490610daa565b909155505060405181815233907fdd60b3dc4ac9d046fcab727db0fe74290c79d3050ce444d61e209a4ac0ce0bf29060200160405180910390a250565b60008080610900610475565b905060005b815181101561096c576009600083838151811061092457610924610d31565b60200260200101516001600160a01b03166001600160a01b0316815260200190815260200160002054836109589190610daa565b92508061096481610d5d565b915050610905565b509092915050565b60007f00000000000000000000000000000000000000000000000000000000000000006001600160a01b0316634000aea07f0000000000000000000000000000000000000000000000000000000000000000848660006040516020016109e4929190918252602082015260400190565b6040516020818303038152906040526040518463ffffffff1660e01b8152600401610a1193929190610dbd565b6020604051808303816000875af1158015610a30573d6000803e3d6000fd5b505050506040513d601f19601f82011682018060405250810190610a549190610e22565b5060008381526020818152604080832054815180840188905280830185905230606082015260808082018390528351808303909101815260a090910190925281519183019190912086845292909152610aae906001610daa565b600085815260208181526040918290209290925580518083018790528082019390935280518084038201815260609093019052815191012090505b92915050565b60078190556000610afe6108f4565b9050600081600754610b109190610e44565b90506000610b1c610475565b9050808281518110610b3057610b30610d31565b6020908102919091010151600480546001600160a01b0319166001600160a01b0390921691821790556040517f1d4c260f1824cd028e6c9e6e31c3a0b94f2513e7a641113ec759d382f9bdd5a190600090a25050505050565b6001600160a01b0381168114610b9e57600080fd5b50565b600080600080600060808688031215610bb957600080fd5b8535610bc481610b89565b94506020860135610bd481610b89565b935060408601359250606086013567ffffffffffffffff80821115610bf857600080fd5b818801915088601f830112610c0c57600080fd5b813581811115610c1b57600080fd5b896020828501011115610c2d57600080fd5b9699959850939650602001949392505050565b6020808252825182820181905260009190848201906040850190845b81811015610c815783516001600160a01b031683529284019291840191600101610c5c565b50909695505050505050565b60008060408385031215610ca057600080fd5b50508035926020909101359150565b60008060408385031215610cc257600080fd5b8235610ccd81610b89565b946020939093013593505050565b600060208284031215610ced57600080fd5b5035919050565b600060208284031215610d0657600080fd5b8135610d1181610b89565b9392505050565b600060208284031215610d2a57600080fd5b5051919050565b634e487b7160e01b600052603260045260246000fd5b634e487b7160e01b600052601160045260246000fd5b600060018201610d6f57610d6f610d47565b5060010190565b600060208284031215610d8857600080fd5b8151610d1181610b89565b8082028115828204841417610ae957610ae9610d47565b80820180821115610ae957610ae9610d47565b60018060a01b038416815260006020848184015260606040840152835180606085015260005b81811015610dff57858101830151858201608001528201610de3565b506000608082860101526080601f19601f83011685010192505050949350505050565b600060208284031215610e3457600080fd5b81518015158114610d1157600080fd5b600082610e6157634e487b7160e01b600052601260045260246000fd5b50069056fea2646970667358221220b0378a7517220eae986047ad865f622e01516b6ce69506b86381a5a3c940a61464736f6c63430008110033",
  "linkReferences": {},
  "deployedLinkReferences": {}
}