{
  "_format": "hh-sol-artifact-1",
  "contractName": "Waffle",
  "sourceName": "contracts/Contract.sol",
  "abi": [
    {
      "inputs": [
        {
          "internalType": "address",
          "name": "_owner",
          "type": "address"
        },
        {
          "internalType": "address",
          "name": "_nftContract",
          "type": "address"
        },
        {
          "internalType": "address",
          "name": "_ChainlinkVRFCoordinator",
          "type": "address"
        },
        {
          "internalType": "address",
          "name": "_ChainlinkLINKToken",
          "type": "address"
        },
        {
          "internalType": "bytes32",
          "name": "_ChainlinkKeyHash",
          "type": "bytes32"
        },
        {
          "internalType": "uint256",
          "name": "_ChainlinkFee",
          "type": "uint256"
        },
        {
          "internalType": "uint256",
          "name": "_nftID",
          "type": "uint256"
        },
        {
          "internalType": "uint256",
          "name": "_slotPrice",
          "type": "uint256"
        },
        {
          "internalType": "uint256",
          "name": "_numSlotsAvailable",
          "type": "uint256"
        }
      ],
      "stateMutability": "nonpayable",
      "type": "constructor"
    },
    {
      "anonymous": false,
      "inputs": [
        {
          "indexed": true,
          "internalType": "address",
          "name": "winner",
          "type": "address"
        }
      ],
      "name": "RaffleWon",
      "type": "event"
    },
    {
      "anonymous": false,
      "inputs": [
        {
          "indexed": true,
          "internalType": "address",
          "name": "claimee",
          "type": "address"
        },
        {
          "indexed": false,
          "internalType": "uint256",
          "name": "numClaimed",
          "type": "uint256"
        }
      ],
      "name": "SlotsClaimed",
      "type": "event"
    },
    {
      "anonymous": false,
      "inputs": [
        {
          "indexed": true,
          "internalType": "address",
          "name": "refunder",
          "type": "address"
        },
        {
          "indexed": false,
          "internalType": "uint256",
          "name": "numRefunded",
          "type": "uint256"
        }
      ],
      "name": "SlotsRefunded",
      "type": "event"
    },
    {
      "inputs": [
        {
          "internalType": "address",
          "name": "",
          "type": "address"
        }
      ],
      "name": "addressToSlotsOwned",
      "outputs": [
        {
          "internalType": "uint256",
          "name": "",
          "type": "uint256"
        }
      ],
      "stateMutability": "view",
      "type": "function"
    },
    {
      "inputs": [],
      "name": "collectRandomWinner",
      "outputs": [
        {
          "internalType": "bytes32",
          "name": "requestId",
          "type": "bytes32"
        }
      ],
      "stateMutability": "nonpayable",
      "type": "function"
    },
    {
      "inputs": [],
      "name": "deleteRaffle",
      "outputs": [],
      "stateMutability": "nonpayable",
      "type": "function"
    },
    {
      "inputs": [],
      "name": "disburseWinner",
      "outputs": [],
      "stateMutability": "nonpayable",
      "type": "function"
    },
    {
      "inputs": [],
      "name": "nftContract",
      "outputs": [
        {
          "internalType": "address",
          "name": "",
          "type": "address"
        }
      ],
      "stateMutability": "view",
      "type": "function"
    },
    {
      "inputs": [],
      "name": "nftID",
      "outputs": [
        {
          "internalType": "uint256",
          "name": "",
          "type": "uint256"
        }
      ],
      "stateMutability": "view",
      "type": "function"
    },
    {
      "inputs": [],
      "name": "nftOwned",
      "outputs": [
        {
          "internalType": "bool",
          "name": "",
          "type": "bool"
        }
      ],
      "stateMutability": "view",
      "type": "function"
    },
    {
      "inputs": [],
      "name": "numSlotsAvailable",
      "outputs": [
        {
          "internalType": "uint256",
          "name": "",
          "type": "uint256"
        }
      ],
      "stateMutability": "view",
      "type": "function"
    },
    {
      "inputs": [],
      "name": "numSlotsFilled",
      "outputs": [
        {
          "internalType": "uint256",
          "name": "",
          "type": "uint256"
        }
      ],
      "stateMutability": "view",
      "type": "function"
    },
    {
      "inputs": [
        {
          "internalType": "address",
          "name": "operator",
          "type": "address"
        },
        {
          "internalType": "address",
          "name": "from",
          "type": "address"
        },
        {
          "internalType": "uint256",
          "name": "tokenId",
          "type": "uint256"
        },
        {
          "internalType": "bytes",
          "name": "data",
          "type": "bytes"
        }
      ],
      "name": "onERC721Received",
      "outputs": [
        {
          "internalType": "bytes4",
          "name": "",
          "type": "bytes4"
        }
      ],
      "stateMutability": "nonpayable",
      "type": "function"
    },
    {
      "inputs": [],
      "name": "owner",
      "outputs": [
        {
          "internalType": "address",
          "name": "",
          "type": "address"
        }
      ],
      "stateMutability": "view",
      "type": "function"
    },
    {
      "inputs": [
        {
          "internalType": "uint256",
          "name": "_numSlots",
          "type": "uint256"
        }
      ],
      "name": "purchaseSlot",
      "outputs": [],
      "stateMutability": "payable",
      "type": "function"
    },
    {
      "inputs": [],
      "name": "randomResult",
      "outputs": [
        {
          "internalType": "uint256",
          "name": "",
          "type": "uint256"
        }
      ],
      "stateMutability": "view",
      "type": "function"
    },
    {
      "inputs": [],
      "name": "randomResultRequested",
      "outputs": [
        {
          "internalType": "bool",
          "name": "",
          "type": "bool"
        }
      ],
      "stateMutability": "view",
      "type": "function"
    },
    {
      "inputs": [
        {
          "internalType": "bytes32",
          "name": "requestId",
          "type": "bytes32"
        },
        {
          "internalType": "uint256",
          "name": "randomness",
          "type": "uint256"
        }
      ],
      "name": "rawFulfillRandomness",
      "outputs": [],
      "stateMutability": "nonpayable",
      "type": "function"
    },
    {
      "inputs": [
        {
          "internalType": "uint256",
          "name": "_numSlots",
          "type": "uint256"
        }
      ],
      "name": "refundSlot",
      "outputs": [],
      "stateMutability": "nonpayable",
      "type": "function"
    },
    {
      "inputs": [
        {
          "internalType": "uint256",
          "name": "",
          "type": "uint256"
        }
      ],
      "name": "slotOwners",
      "outputs": [
        {
          "internalType": "address",
          "name": "",
          "type": "address"
        }
      ],
      "stateMutability": "view",
      "type": "function"
    },
    {
      "inputs": [],
      "name": "slotPrice",
      "outputs": [
        {
          "internalType": "uint256",
          "name": "",
          "type": "uint256"
        }
      ],
      "stateMutability": "view",
      "type": "function"
    }
  ],
  "bytecode": "0x6101a0604052600060018190556002805460ff199081169091556003919091556006805490911690553480156200003557600080fd5b5060405162001a7038038062001a708339810160408190526200005891620000b9565b6001600160a01b0396871660a0529486166080529685166101005260c09290925260e052929091166101605261018091909152610120919091526101405262000147565b80516001600160a01b0381168114620000b457600080fd5b919050565b60008060008060008060008060006101208a8c031215620000d957600080fd5b620000e48a6200009c565b9850620000f460208b016200009c565b97506200010460408b016200009c565b96506200011460608b016200009c565b955060808a0151945060a08a0151935060c08a0151925060e08a015191506101008a015190509295985092959850929598565b60805160a05160c05160e051610100516101205161014051610160516101805161184f6200022160003960008181610324015281816107e001528181610aac0152610cf90152600081816103780152818161074201528181610ad40152610d1f0152600081816102840152818161044501526105d70152600081816101350152818161053e01528181610dd101526110ac0152600081816102b801528181610a0c01528181610b7e01526111fe01526000611314015260006112f30152600081816113480152611418015260006113e9015261184f6000f3fe6080604052600436106101095760003560e01c806347984f2c1161009557806394985ddd1161006457806394985ddd146102f2578063c399475214610312578063ce16097e14610346578063d56d229d14610366578063fd1fbdd11461039a57600080fd5b806347984f2c146102425780635d1cf7ea1461025c5780637489ce48146102725780638da5cb5b146102a657600080fd5b80631a8cef9a116100dc5780631a8cef9a146101cd5780631b355bd8146101e2578063201c5343146101f75780632f8b74141461021757806342619f661461022c57600080fd5b806304c60eae1461010e57806304e0465614610123578063150b7a021461016a57806315cc7b2a146101a3575b600080fd5b61012161011c366004611560565b6103c7565b005b34801561012f57600080fd5b506101577f000000000000000000000000000000000000000000000000000000000000000081565b6040519081526020015b60405180910390f35b34801561017657600080fd5b5061018a610185366004611595565b61073e565b6040516001600160e01b03199091168152602001610161565b3480156101af57600080fd5b506006546101bd9060ff1681565b6040519015158152602001610161565b3480156101d957600080fd5b50610121610883565b3480156101ee57600080fd5b50610121610b73565b34801561020357600080fd5b50610121610212366004611560565b610e5c565b34801561022357600080fd5b50610157611179565b34801561023857600080fd5b5061015760015481565b34801561024e57600080fd5b506002546101bd9060ff1681565b34801561026857600080fd5b5061015760035481565b34801561027e57600080fd5b506101577f000000000000000000000000000000000000000000000000000000000000000081565b3480156102b257600080fd5b506102da7f000000000000000000000000000000000000000000000000000000000000000081565b6040516001600160a01b039091168152602001610161565b3480156102fe57600080fd5b5061012161030d366004611630565b61133d565b34801561031e57600080fd5b506101577f000000000000000000000000000000000000000000000000000000000000000081565b34801561035257600080fd5b506102da610361366004611560565b6113bb565b34801561037257600080fd5b506102da7f000000000000000000000000000000000000000000000000000000000000000081565b3480156103a657600080fd5b506101576103b5366004611652565b60056020526000908152604090205481565b6000811161041c5760405162461bcd60e51b815260206004820181905260248201527f576166666c653a2043616e6e6f74207075726368617365203020736c6f74732e60448201526064015b60405180910390fd5b60065460ff1615156001146104435760405162461bcd60e51b815260040161041390611674565b7f0000000000000000000000000000000000000000000000000000000000000000600354106104c05760405162461bcd60e51b8152602060048201526024808201527f576166666c653a20416c6c20726166666c6520736c6f7473206172652066696c6044820152633632b21760e11b6064820152608401610413565b60025460ff16156105395760405162461bcd60e51b815260206004820152603a60248201527f576166666c653a2043616e6e6f7420707572636861736520736c6f742061667460448201527f65722077696e6e657220686173206265656e2063686f73656e2e0000000000006064820152608401610413565b6105637f0000000000000000000000000000000000000000000000000000000000000000826116d7565b34146105ce5760405162461bcd60e51b815260206004820152603460248201527f576166666c653a20496e73756666696369656e74204554482070726f7669646560448201527332103a3790383ab931b430b9b29039b637ba399760611b6064820152608401610413565b6003546105fb907f00000000000000000000000000000000000000000000000000000000000000006116ee565b8111156106615760405162461bcd60e51b815260206004820152602e60248201527f576166666c653a2052657175657374696e6720746f207075726368617365207460448201526d37b79036b0b73c9039b637ba399760911b6064820152608401610413565b60005b818110156106c057600480546001810182556000919091527f8a35acfbc15ff81a39ae7d344fd709f28e8600b4aa8c65c6b64bfe7fe36bd19b0180546001600160a01b03191633179055806106b881611701565b915050610664565b50806003546106cf919061171a565b600355336000908152600560205260409020546106ed90829061171a565b33600081815260056020526040908190209290925590517f86e01953521e8ca90cf9568ce180d715096931ef1c18c1343b19c53e5c6e6361906107339084815260200190565b60405180910390a250565b60007f00000000000000000000000000000000000000000000000000000000000000006001600160a01b0316856001600160a01b0316146107de5760405162461bcd60e51b815260206004820152603460248201527f576166666c653a20526166666c65206e6f7420696e697469617465642077697460448201527334103a3434b99027232a1031b7b73a3930b1ba1760611b6064820152608401610413565b7f000000000000000000000000000000000000000000000000000000000000000084146108645760405162461bcd60e51b815260206004820152602e60248201527f576166666c653a20526166666c65206e6f7420696e697469617465642077697460448201526d34103a3434b99027232a1024a21760911b6064820152608401610413565b506006805460ff19166001179055630a85bd0160e11b95945050505050565b60065460ff1615156001146109005760405162461bcd60e51b815260206004820152603a60248201527f576166666c653a2043616e6e6f74206469737572627365204e465420746f207760448201527f696e6e657220776974686f757420686f6c64696e67204e46542e0000000000006064820152608401610413565b60025460ff16151560011461097d5760405162461bcd60e51b815260206004820152603f60248201527f576166666c653a2043616e6e6f7420646973627572736520746f2077696e6e6560448201527f7220776974686f757420686176696e6720636f6c6c6563746564206f6e652e006064820152608401610413565b6001546000036109ff5760405162461bcd60e51b815260206004820152604160248201527f576166666c653a20506c65617365207761697420666f7220436861696e6c696e60448201527f6b2056524620746f20757064617465207468652077696e6e65722066697273746064820152601760f91b608482015260a401610413565b6040516001600160a01b037f000000000000000000000000000000000000000000000000000000000000000016904780156108fc02916000818181858888f19350505050158015610a54573d6000803e3d6000fd5b5060006004600354600154610a69919061172d565b81548110610a7957610a7961174f565b600091825260209091200154604051632142170760e11b81523060048201526001600160a01b03918216602482018190527f0000000000000000000000000000000000000000000000000000000000000000604483015292507f0000000000000000000000000000000000000000000000000000000000000000909116906342842e0e90606401600060405180830381600087803b158015610b1a57600080fd5b505af1158015610b2e573d6000803e3d6000fd5b50506006805460ff1916905550506040516001600160a01b038216907fa2564fbe9f8e6077adcf46dfe7c571eae3b5a67375d138e992f66e4db4f9752690600090a250565b336001600160a01b037f00000000000000000000000000000000000000000000000000000000000000001614610bf95760405162461bcd60e51b815260206004820152602560248201527f576166666c653a204f6e6c79206f776e65722063616e2064656c657465207261604482015264333336329760d91b6064820152608401610413565b60065460ff161515600114610c6d5760405162461bcd60e51b815260206004820152603460248201527f576166666c653a2043616e6e6f742063616e63656c20726166666c65207769746044820152733437baba103930b3333632b0b136329027232a1760611b6064820152608401610413565b60025460ff1615610cde5760405162461bcd60e51b815260206004820152603560248201527f576166666c653a2043616e6e6f742064656c65746520726166666c652061667460448201527432b91031b7b63632b1ba34b733903bb4b73732b91760591b6064820152608401610413565b604051632142170760e11b81523060048201523360248201527f000000000000000000000000000000000000000000000000000000000000000060448201527f00000000000000000000000000000000000000000000000000000000000000006001600160a01b0316906342842e0e90606401600060405180830381600087803b158015610d6b57600080fd5b505af1158015610d7f573d6000803e3d6000fd5b50506006805460ff191690555050600354600090610d9f906001906116ee565b90505b60048181548110610db557610db561174f565b60009182526020822001546040516001600160a01b03909116917f000000000000000000000000000000000000000000000000000000000000000080156108fc02929091818181858888f19350505050158015610e16573d6000803e3d6000fd5b506004805480610e2857610e28611765565b600082815260209020810160001990810180546001600160a01b031916905501905580610e548161177b565b915050610da2565b60065460ff161515600114610e835760405162461bcd60e51b815260040161041390611674565b60025460ff1615610efc5760405162461bcd60e51b815260206004820152603860248201527f576166666c653a2043616e6e6f7420726566756e6420736c6f7420616674657260448201527f2077696e6e657220686173206265656e2063686f73656e2e00000000000000006064820152608401610413565b33600090815260056020526040902054811115610f815760405162461bcd60e51b815260206004820152603760248201527f576166666c653a204164647265737320646f6573206e6f74206f776e206e756d60448201527f626572206f662072657175657374656420736c6f74732e0000000000000000006064820152608401610413565b6000815b60045482108015610f965750600081115b156110a357336001600160a01b031660048381548110610fb857610fb861174f565b6000918252602090912001546001600160a01b031614610fe45781610fdc81611701565b925050610f85565b60048054610ff4906001906116ee565b815481106110045761100461174f565b600091825260209091200154600480546001600160a01b0390921691849081106110305761103061174f565b9060005260206000200160006101000a8154816001600160a01b0302191690836001600160a01b03160217905550600480548061106f5761106f611765565b600082815260209020810160001990810180546001600160a01b03191690550190558061109b8161177b565b915050610f85565b336108fc6110d17f0000000000000000000000000000000000000000000000000000000000000000866116d7565b6040518115909202916000818181858888f193505050501580156110f9573d6000803e3d6000fd5b508260035461110891906116ee565b600355336000908152600560205260409020546111269084906116ee565b33600081815260056020526040908190209290925590517fe8e3157b474707a4ad53aa38ca233ac428bb08f705eb304f0859d2a884c880029061116c9086815260200190565b60405180910390a2505050565b600080600354116111cc5760405162461bcd60e51b815260206004820152601b60248201527f576166666c653a204e6f20736c6f7473206172652066696c6c656400000000006044820152606401610413565b60065460ff1615156001146111f35760405162461bcd60e51b815260040161041390611674565b336001600160a01b037f000000000000000000000000000000000000000000000000000000000000000016146112825760405162461bcd60e51b815260206004820152602e60248201527f576166666c653a204f6e6c79206f776e65722063616e2063616c6c2077696e6e60448201526d32b91031b7b63632b1ba34b7b71760911b6064820152608401610413565b60025460ff16156112e15760405162461bcd60e51b8152602060048201526024808201527f576166666c653a2043616e6e6f7420636f6c6c6563742077696e6e657220747760448201526334b1b29760e11b6064820152608401610413565b6002805460ff191660011790556113387f00000000000000000000000000000000000000000000000000000000000000007f00000000000000000000000000000000000000000000000000000000000000006113e5565b905090565b336001600160a01b037f000000000000000000000000000000000000000000000000000000000000000016146113b55760405162461bcd60e51b815260206004820152601f60248201527f4f6e6c7920565246436f6f7264696e61746f722063616e2066756c66696c6c006044820152606401610413565b60015550565b600481815481106113cb57600080fd5b6000918252602090912001546001600160a01b0316905081565b60007f00000000000000000000000000000000000000000000000000000000000000006001600160a01b0316634000aea07f000000000000000000000000000000000000000000000000000000000000000084866000604051602001611455929190918252602082015260400190565b6040516020818303038152906040526040518463ffffffff1660e01b815260040161148293929190611792565b6020604051808303816000875af11580156114a1573d6000803e3d6000fd5b505050506040513d601f19601f820116820180604052508101906114c591906117f7565b5060008381526020818152604080832054815180840188905280830185905230606082015260808082018390528351808303909101815260a09091019092528151918301919091208684529290915261151f90600161171a565b600085815260208181526040918290209290925580518083018790528082019390935280518084038201815260609093019052815191012090505b92915050565b60006020828403121561157257600080fd5b5035919050565b80356001600160a01b038116811461159057600080fd5b919050565b6000806000806000608086880312156115ad57600080fd5b6115b686611579565b94506115c460208701611579565b935060408601359250606086013567ffffffffffffffff808211156115e857600080fd5b818801915088601f8301126115fc57600080fd5b81358181111561160b57600080fd5b89602082850101111561161d57600080fd5b9699959850939650602001949392505050565b6000806040838503121561164357600080fd5b50508035926020909101359150565b60006020828403121561166457600080fd5b61166d82611579565b9392505050565b6020808252602d908201527f576166666c653a20436f6e747261637420646f6573206e6f74206f776e20726160408201526c33333632b0b136329027232a1760991b606082015260800190565b634e487b7160e01b600052601160045260246000fd5b808202811582820484141761155a5761155a6116c1565b8181038181111561155a5761155a6116c1565b600060018201611713576117136116c1565b5060010190565b8082018082111561155a5761155a6116c1565b60008261174a57634e487b7160e01b600052601260045260246000fd5b500690565b634e487b7160e01b600052603260045260246000fd5b634e487b7160e01b600052603160045260246000fd5b60008161178a5761178a6116c1565b506000190190565b60018060a01b038416815260006020848184015260606040840152835180606085015260005b818110156117d4578581018301518582016080015282016117b8565b506000608082860101526080601f19601f83011685010192505050949350505050565b60006020828403121561180957600080fd5b8151801515811461166d57600080fdfea264697066735822122003dd96c6e1351c437ad50d526e3cded2bf7e7f7569267e843ddd8cd93d80fe9d64736f6c63430008110033",
  "linkReferences": {},
  "deployedLinkReferences": {}
}